:0200000460009A
:100000004643464200000156000000000103030081
:1000100000000000000000000000000000000000E0
:1000200000000000000000000000000000000000D0
:1000300000000000000000000000000000000000C0
:1000400000000000010408000000000000000000A3
:100050000000800000000000000000000000000020
:100060000000000000000000000000000000000090
:100070000000000000000000000000000000000080
:10008000EB04180A063204260000000000000000FD
:10009000050404240000000000000000000000002F
:1000A0000000000000000000000000000000000050
:1000B0000604000000000000000000000000000036
:1000C0000000000000000000000000000000000030
:1000D00020041808000000000000000000000000DC
:1000E0000000000000000000000000000000000010
:1000F0000000000000000000000000000000000000
:10010000D8041808000000000000000000000000F3
:100110000204180804200000000000000000000095
:1001200000000000000000000000000000000000CF
:10013000600400000000000000000000000000005B
:1001400000000000000000000000000000000000AF
:10015000000000000000000000000000000000009F
:10016000000000000000000000000000000000008F
:10017000000000000000000000000000000000007F
:10018000000000000000000000000000000000006F
:10019000000000000000000000000000000000005F
:1001A000000000000000000000000000000000004F
:1001B000000000000000000000000000000000003F
:1001C000000100000010000001000000000000001D
:1001D000000001000000000000000000000000001E
:1001E000000000000000000000000000000000000F
:1001F00000000000000000000000000000000000FF
:10020000FFFFFFFFFFFFFFFFFFFFFFFFFFFFFFFFFE
:10021000FFFFFFFFFFFFFFFFFFFFFFFFFFFFFFFFEE
:10100000D10020434D1600600000000000000000E9
:10101000201000600010006000300460000000003C
:1010200000000060003C040000000000FFFFFFFF24
:10103000FFFFFFFFFFFFFFFFFFFFFFFFFFFFFFFFC0
:10104000FFFFFFFFFFFFFFFFFFFFFFFFFFFFFFFFB0
:10105000FFFFFFFFFFFFFFFFFFFFFFFFFFFFFFFFA0
:10106000FFFFFFFFFFFFFFFFFFFFFFFFFFFFFFFF90
:10140000814205D051F8043B40F8043B8242F9D8B0
:10141000704700BF044A05494FF0000342F8043BFF
:101420009142FBD8704700BFC0DA002020F40020B2
:101430002DE98848BFF34F8F00BF00BF00BF00BF3A
:1014400000F0CCFC684B0822C3F8542100BF00BF59
:1014500000BF00BF00BF00BF00BF00BF00BF00BF94
:1014600000BF00BF00BF00BF00BF00BF5F4A6049B0
:101470006048FFF7C5FF604A60496148FFF7C0FF59
:10148000604CFFF7C7FF4FF470004FF0E0210023DE
:101490005D4AC1F8880D44F823200133B02BFAD1FE
:1014A0005A4B80215A4A03F8011B9342FBD14FF05B
:1014B000E0254D4E4FF08039DFF884B1DFF884A18C
:1014C0004FF0FF31C5F8084D0027C6F80491C6F863
:1014D00000B1C6F8F490C6F8F0A0D5F8243DDFF8C6
:1014E000688143F4E0234B4AC5F8243DD8F81C300A
:1014F00023F07F0343F04003C8F81C30D8F82430B1
:1015000023F07F0343F04003C8F824309166D1668E
:101510001167516700F06AFC3F4B4049A363404BA1
:10152000E36363236B610323AF612B613D4BC5F81C
:10153000203DD5F8FC3D43F08073C5F8FC3D3A4BA7
:101540001A6842F001021A605B680B6000F098FEB6
:10155000C6F804913548C6F800B1C6F8F490C6F84C
:10156000F0A000F0FDFFD8F86C10314B314A41F487
:101570004051C8F86C101F60C3F80871C3F81871A7
:10158000C3F82871C3F83871936BDB0708D442F6AF
:101590001563294951651365936B43F00103936308
:1015A000244A264C936843F00113936000F0A6FC94
:1015B00000F0EAFB01F00CF800F090FE00F010FCE7
:1015C0002368132BFCD900F021FF2368B3F5967F25
:1015D000FBD300F009FC00F005FC00F0E5FF00F093
:1015E000FBFF30BFFDE700BF00800D40482D03002A
:1015F0005827006000000000C0DA0020A4540360F7
:101600000000002000D80020958D010000E400E0DB
:10161000A0E400E000C00A40A979010058F30020CE
:10162000857A010000002020001000E00046C3235E
:101630000040084000400D400000C0565CF3002010
:101640001B1018200C0D111300C00F40054B4FF458
:101650002A01054A05485A641864054A9963954663
:10166000FFF7E6FE00C00A40FFBFAAAA070020005D
:101670000080042010B5044600F0CEFFD4F85031AD
:1016800023B104F5A471032208469847D4F84031E9
:1016900023B104F59C71032208469847D4F83031F1
:1016A00023B104F59471032208469847204610BDE3
:1016B00070B5114D044600F063FF06682B782BB916
:1016C00000F05EFF034620461E6070BD206800F0FB
:1016D0008FFF00232B70236023710028F0D000F0CF
:1016E0003BFF054600F04CFF056000F049FF034654
:1016F00020461E6070BD00BFC3F30020F8B56E4CDD
:10170000237813F0FD0F00D0F8BD6C494FF48035FD
:101710006B4A4CF20F00CB6E43F44063CB664FF440
:1017200080536849C2F8E450C2F8E800C2F8E410F7
:10173000C2F8E830D2F8E030002BFBDA62494FF40F
:101740008030624B4FF23805C2F8E80038204A6812
:101750004FF4804622F4005242F402024A6043F2FF
:1017600038020521C3F87C23C3F88423C3F88053CF
:10177000574DC3F89823C3F86803C3F864034FF6C2
:101780002900C3F87811C3F874114FF400416A6856
:1017900042F440426A600022C5F88810C5F88460AF
:1017A000C3F8A8034BF2E900C3F8A4030220C3F86E
:1017B000B821C3F8B421474A106331223220C3F85C
:1017C00094231622C3F8A42103F5602312225A643D
:1017D000C5F8841000F01CFF3F49404AC5F88860F6
:1017E0003F4B48681268A3FB0232920C02EB820264
:1017F00002EB82024B681B1A9A42FBD8344B4FF41F
:1018000080420220C3F8842000F002FF354B4FF4E1
:101810000001354A59601A645A681002FCD51A6CE6
:101820004FF4000192B25960B2F5005F11D12F4818
:101830002C4A5960186453681902FCD5136C4AF29B
:1018400040104FF4000123F00F0351609BB283421C
:101850001BD01F4D4FF480371B484FF0010C6B68B5
:10186000174923F44043154A214E6B60436823F423
:1018700000334360C1F8E470C1F8E060D36E23F434
:101880004063D36684F800C0F8BD1A48154B516018
:1018900010645A681202FCD54FF400011648114A30
:1018A00059605960186453681B02FCD54FF400015D
:1018B000032351602370F8BDD5F3002000C00F4012
:1018C00000800D400120200000C00A4000801F4021
:1018D0000040004200841F40001000E014CF0020B0
:1018E00083DE1B4300802D4000000A6000000E6074
:1018F000011001008002625081005E50012300222D
:10190000037043708370C270037142718371C3713D
:10191000704700BF70B5624C2378042B00F0BE8086
:10192000FFF7ECFE2278032A01D0002070BD5D4B4A
:101930004BF2E9015C48C3F87C135C4DC3F880139B
:10194000C3F88413C3F89813C3F88813C3F88C132F
:10195000C3F890130021C3F88C21C3F89021C3F879
:10196000A821C3F89421C3F8A021C3F89821C3F893
:101970009C210123A022C36243638363C363036486
:10198000284600F00DFEA0220021494800F008FE84
:10199000484A05F1A00C2B464FF4004080215A60C4
:1019A000203323F81E0C02F5C06223F8161C634591
:1019B000F5D1B5F882304FF480603D4E4FF4B04120
:1019C00043F400533C4A06F1A00CA5F8823033469C
:1019D0005A60203323F81E0C02F5C06223F8161C4F
:1019E0006345F5D1B6F882204FF00070334B42F4D6
:1019F00000523349A6F8822000229A60C3F884106E
:101A00004FF48271C3F8C4101921C3F8C011C72163
:101A1000C3F8C4114FF48071C3F844114FF4C0618E
:101A2000C3F89021C3F88051C3F88461C3F88811CA
:101A30002449C3F80021C3F8F020C3F8EC10C3F820
:101A4000942121495A66C3F81821C3F81C21C3F810
:101A50002021C3F824211D4A9860C2F808124FF0D3
:101A6000E0224FF480211A48C2F80C114FF0010116
:101A7000184A5860BFF35B8FD2E84F0FC2E8451F8A
:101A8000002DF9D14FF0807213480421BFF35B8F12
:101A9000586201201A615A61217070BD012070BD29
:101AA000D5F3002000801F4000841F40C0DA0020D2
:101AB00080DB0020001E20200000202000802D4020
:101AC00024D1F24514000100A587000000D80020B1
:101AD0000080FF7F4CF3002012010070704700BFB0
:101AE000F8B11149114A38B5114B00250446056378
:101AF000C0E904219A8840F2DC51186843F60623B5
:101B0000A186A387C4F8360020466287094900F001
:101B10007BFD2046084900F04BFD084B28466364D6
:101B200038BD6FF00F007047618C0000C9C600001F
:101B300034F30020E0F20020C0F20020718C00009D
:101B40002DE9F04182B080460F461546FFF7E2FED0
:101B5000044640B315B12846FFF7D0FEB8F1000F98
:101B600058D0314C257815BB062241462F4800F04D
:101B700003FD002836D12D4E404600F03DFD304695
:101B800000F002FD054600283BD0DFF8B48098F84D
:101B900000408CB1264B06223068B188C3F836006D
:101BA000598783F83C20204602B0BDE8F08100F060
:101BB00017FD00232370DEE739461E4800F014FDB0
:101BC0001D4B1E4A21461A4800F0E2FC38B32C4651
:101BD000174800F015FD0123204688F8003002B0B8
:101BE000BDE8F081164C2378002BC4D0284600F0C5
:101BF00007FD0F4800F0E4FC0E4800F0B9FC25702A
:101C0000B9E700F0BDFC2C460E230360204602B06D
:101C1000BDE8F0816846E84600F0CEFCA1E7054843
:101C200000F0A6FCBFE700BF14D6002034F300206C
:101C3000A4D5002054F200206DE20000E11A0060FB
:101C4000D6F3002038B50C4D00240C4B2A781C60CC
:101C50009C801AB9BDE83840FFF740BF204600F02D
:101C6000CFFC074800F0ACFC064800F081FC2C706B
:101C7000BDE83840FFF732BFD6F3002034F3002030
:101C8000A4D5002054F2002000B583B0019000F0EC
:101C90006BFC019803B05DF804FB00BF2448254BA2
:101CA000D0F88020244942F4405210B4C0F880207B
:101CB000224C234A1C6023485A60234A1862234C52
:101CC0005A622348234A9C6246F62014D86240F6A2
:101CD000A3101A634FF4C862596359634FF4C841A3
:101CE000DC603F249860D9619A611A681A4822F032
:101CF00080021A491A601A6822F00C021A601A68E7
:101D000022F0030242F002021A605C6118610020B6
:101D1000D3F8A0205DF8044B22F00202C3F8A02003
:101D20001A6822F480321A60DA6F1B6C0860704700
:101D300000C00F4000C00C402F002E0040100100DA
:101D40002200010068050C019501B200DC007A0058
:101D50007D0058004B004000C409800C14F30020A3
:101D6000074A136843F48033136013689B04FCD55F
:101D7000044AD2F8803023F44053C2F880307047D0
:101D800000C00C4000C00F40104BA020104AD96E7C
:101D900041F4403110B4D96640F23764D96E41F451
:101DA0004071D96654649064936C1B06FCD4094A54
:101DB00040F23761A02351649364936C13F0800365
:101DC000FBD1054A13705DF8044B704700C00F400B
:101DD00000400C4000800C40C9F30020704700BF59
:101DE000704700BF704700BF00BF704710B44FF08E
:101DF000E023002110243148C3F8941DC3F89C4D02
:101E00001124C3F8A00D2E48C3F89C4D1224C3F82A
:101E1000A00D2C48C3F89C4D2B4AC3F8A00D2B4CA9
:101E200042F015022A48C3F89C4DC3F8A00D294C76
:101E30002948C3F89C4DC3F8A00D284CC3F89C2D2D
:101E40002748284AC3F8A04DC3F89C0DC3F8A02D1D
:101E500002F5A022244C0C322448C3F89C4DC3F850
:101E6000A02D234AC3F89C0D224CC3F8A02D02F1EB
:101E70004062C3F89C4D2048C3F8A02D0C32C3F833
:101E80009C0DC3F8A02D00BF00BF00BF00BF00BF66
:101E90000122C3F8942DBFF34F8FBFF36F8FC3F8A8
:101EA000501FBFF34F8FBFF36F8FD3F8142D5DF822
:101EB000044B42F44032C3F8142D70473F00001029
:101EC000250008070900100020F40020130020005E
:101ED000210002071400002025000813090000104B
:101EE0001600202027000B13170000401800006088
:101EF0002F000B07190000701A000080F0B5B84BD6
:101F00001822B84E0120B84F83B0C3F85C62B749BD
:101F1000C3F86072B64DC3F86462A6F53046B54C9E
:101F2000C3F86862C3F86C52C3F87052C3F87452B5
:101F3000C3F8785248F20C75DA661A675A679A67DE
:101F4000DA67C3F88020C3F88420C3F88820C1F87A
:101F50002C03A94AC1F83003C1F83403C1F838038F
:101F6000C1F83C03C1F85003A169A44B0A40A4483E
:101F7000A4491343A44AA361D4F8843043F00C036A
:101F8000C4F884304FF0FF34036843F00203036069
:101F900003682B404FF400551A439C4B0260446089
:101FA0008A689B4C13409B4A43F000538360C3688C
:101FB00023F07803C360036A134023430362036A78
:101FC0001340954A2343954C43628262C2620022C9
:101FD000D1F8B83023F03F0343F00103C0F8B83024
:101FE000D1F8BC308E4923F03F0343F00103C0F821
:101FF000BC3040F20563026105660467C0F88030BA
:10200000456644670224C0F88430036823F0020365
:1020100003608161834B8449C46143F8042B8B4284
:10202000FBD1774A136843F001031360136813F080
:102030000103FBD17A48022140F2F564906140F23D
:102040009940D16140F26641C2F8004242F2014437
:10205000C2F810127549C2F82002C2F8301240F2DC
:1020600035417348C2F83442C2F84012714CC2F88C
:10207000500242F201207049C2F854120121C2F804
:102080006042C2F864025E48C2F8A030C2F8A430D0
:10209000C2F8B0104369DA07FCD5012300244FF4DD
:1020A000803257494361C0F8A040C0F8A420C0F86E
:1020B000B0304B69DB07FCD5012300244FF400301E
:1020C0004F4A4B61C1F8A040C1F8A400C1F8B0303C
:1020D0005369DF07FCD50123002458484849536160
:1020E000C2F8A040C2F8A400C2F8B0304B69DE07C5
:1020F000FCD5D1F8003145F60D5221209BB2486144
:10210000934265D100244FF4802201233C48C1F85A
:10211000A040C1F8A420C1F8B0304369DD07FCD568
:1021200001234FF400040021354A4361C0F8A04068
:10213000C0F8A410C0F8B0305369DC07FCD5012307
:102140004FF400044FF480302D495361C2F8A04091
:10215000C2F8A400C2F8B0304B69D807FCD50123FF
:102160004FF400044FF40030254A4B61C1F8A04001
:10217000C1F8A400C1F8B0305369D907FCD50123D8
:102180004FF400042D481E495361C2F8A040C2F824
:10219000A400C2F8B0304B69DA07FCD5D1F80031A1
:1021A00045F60D5221209BB24861934250D008253C
:1021B0004FF4000422490020224B234A009015705E
:1021C0005A1A01232148224400F0E6F903B0F0BD79
:1021D0001E4B0022C3E90022C3E9022203B0F0BD76
:1021E00000801F40F9B00100F910010000841F4079
:1021F000F970010000C00F40FFFCFF1F000300A0AA
:1022000000402A4000802A401200FFFFFF37F700FD
:102210004000008000FFF07CFF000F83630002009D
:10222000F05AF05A00422A4000432A409F041830D6
:10223000EB06180A3806180A0632012604000300C5
:102240000000007000000070CCF30020ECF10020D2
:102250004FF400044FF4802201230848C1F8A04045
:10226000C1F8A420C1F8B0304369DB07FCD50123D5
:1022700010254FF0807443619CE700BF00402A4066
:10228000F0B4154A40274FF480314FF480564FF494
:1022900000554FF4404443F24200136913F0020F1B
:1022A0000ED113F4005F0FD013F4805F0ED0002B1B
:1022B000F3DA13F4803F0BD15B060BD5F0BC70470B
:1022C000946151619061E8E75561E6E75661E4E7A2
:1022D0009161E2E75761E0E700800D403F4A03204B
:1022E0003F49F3EE095AD2F880304FF0000C9FEDD1
:1022F0003D6A23F001039FED3C5A30B4C2F88030B0
:10230000C2F89000D1F8E010384DCBB2384C3948C3
:102310002B6007EE903A0B0DC1F30B21F8EEE77A34
:1023200006EE903A07EE101A334BB8EEC77A2160EA
:10233000F8EEE66A314937EEC66A37EEC55A76EEF0
:10234000C76A77EEE57A26EE266AC3ED006A25EEC7
:10235000265AD2F8803067EEA64AC0ED007AC6EE63
:10236000275A274885EE276AC4EEA76A75EE875A72
:10237000FCEEE55A36EE076A15EE904ABCEEC66AE8
:1023800043EA045376EE877AC2F8803016EE103AAC
:10239000D2F89041FCEEE77A01EA0341214317EEBF
:1023A000903AC2F89011C3F30B03D2F890110B438B
:1023B0001449C2F89031D2F8803043F00203C2F8D9
:1023C0008030114B80F840C0C1F840314FF0E0231D
:1023D000012230BCC3F80821704700BF00810D40C6
:1023E00000441F400000AA420000B4421CF3002039
:1023F00018F3002020F3002048F300200000FF0F16
:1024000000E400E000D80020818F0100314B40F64D
:10241000617210B5C3F8202140F2044400F0D4F8F2
:102420002D4A2E49D2F880302D4843F00303C2F8DC
:1024300080302C4BC1F8604102681A4203D1D1F8B8
:10244000A8319A071BD0254A4FF00041244B59630D
:10245000D2F8403143F00203C2F84031D2F84031A3
:102460009B07FBD44FF400304FF0E0211C4B4FF0A2
:102470000042C1F88C0219209A6300F0C9F8184A8A
:102480004FF08040154C002190630A20164B1160DC
:102490004FF42072C4F8A801184600F081F84FF4F8
:1024A000800203464FF4810040F243111860C4F8E3
:1024B00058311A640D4B0E4AC4F84811C3F804226F
:1024C0004FF0E0224FF400310123C2F80C11C4F8A0
:1024D000403110BD00800D4000C00F4000002E4074
:1024E00000900D40001C1E000000002000D80020BD
:1024F0006991010008B50E4B1B6E9B0700D4FBBE13
:1025000072B60C4B00200C4AC3F8400103F1604343
:102510000A49A3F55F2311649D46BFF34F8F4FF423
:1025200000130748074ADB6902609B68984700BFB1
:1025300000441F4000002E4000C00A40030020005D
:1025400000802020000012EBF8B500BFF8BC08BCEA
:102550009E467047000000005FF800F025920000E2
:102560005FF800F0E98401005FF800F0C58D00001D
:102570005FF800F0B1DD00005FF800F05D8402005C
:102580005FF800F0158D02005FF800F0D1870000C1
:102590005FF800F045E000005FF800F031A30100B3
:1025A0005FF800F0B58502005FF800F0218D0200B1
:1025B0005FF800F0ADA600005FF800F0CD870000E6
:1025C0005FF800F019E100005FF800F0D998010011
:1025D0005FF800F0F1A101005FF800F0BD8B010091
:1025E0005FF800F0B1A300005FF800F039DD0000F3
:1025F0005FF800F0C99200005FF800F00D8800005D
:102600005FF800F0DDDC00005FF800F091B800003A
:102610005FF800F0D98701005FF800F02D85000019
:10262000E500000075290000F585000071870000B5
:102630000D8E0000D5E3000009030100CD1101005B
:10264000051F0100752F01006178010065A60100DA
:10265000160355005300420020005300650072002D
:10266000690061006C0000001803540065006500FB
:102670006E00730079006400750069006E006F00E1
:102680000403090409026200030100C032080B00C0
:1026900002020201000904000001020201000524F7
:1026A000001001052401010104240206052406008E
:1026B000010705820310001009040100020A00004E
:1026C00000070503024000000705840240000009DE
:1026D00004020002FF6AFF000705810240000107B3
:1026E000050102400001000009026200030100C070
:1026F00032080B000202020100090400000102027C
:102700000100052400100105240101010424020632
:1027100005240600010705820310000509040100D5
:10272000020A0000000705030200020007058402F8
:102730000002000904020002FF6AC70007058102C7
:102740000002010705010200020100000A06000262
:08275000EF020140010000004E
:102758000000000000000000000000000000000071
:102768000000000000000000000000000000000061
:1027780020F47F6020F00F0000F5805203680430D9
:10278800013303D19042F9D10020704701207047EE
:102798002DE9F34106460D4690460024444514D2DF
:1027A800A719C7F30B0333B93846FFF7E1FF10B198
:1027B800384618F04FFD04226359384604340DEBAF
:1027C8000201019318F0D0FCE8E705F12045B5F5C2
:1027D800000F08D20C4D04E0A119C1F30B0343B15B
:1027E8000434AC42F8D34FF0E023084AC3F80C2D68
:1027F80008E00846FFF7BCFF0028F1D0084618F0AB
:1028080029FDEDE7FEE700BF00C07F000400FA05E0
:102818000548064B1B1AD90F01EBA301491002D03A
:10282800034B03B118477047C0DA0020C0DA002014
:102838000000000008B5054B1BB105490548AFF37A
:102848000080BDE80840FFF7E3BF00BF00000000BC
:1028580068F20020003C04602DE9F84301210D20B6
:1028680018F01CFC012102203E4D18F017FC012134
:1028780003203D4C18F012FC012104203B4F18F0B6
:102888000DFC01210520DFF8F89018F007FC002165
:102898000D2040F2EE2818F0C5FB0021022018F0A8
:1028A800C1FB0021032018F0BDFB0021042018F013
:1028B800B9FB0021052018F0B5FB4FF4FA7018F0A9
:1028C80033FB2E6819F092FF2378002B37D03B7822
:1028D800DA0734D52B68D9F800209B1A0E2B2ED98D
:1028E8002E68224FDFF8988019F080FF237883B391
:1028F8003B78DB072DD52B68D8F800209B1A0E2BC8
:1029080027D91B4817F006FD43211A4819F0F0FE95
:10291800174817F0FFFC1A21174819F0E9FE144868
:1029280017F0F8FC0B21154819F0E2FE104817F0D3
:10293800F1FC19F011FFBDE8F84302F0DBB82B6891
:1029480022789B1B5AB1B3F5FA6FC9D819F04EFF1C
:10295800B8E72B689B1BB3F5FA5FC5D3D1E74345AE
:10296800F4D9BDE75CF30020E3F30020E2F3002094
:1029780068CF0020FC070020400800205C080020E9
:1029880094F30020014B1870704700BF13D6002045
:10299800034B002201460D201A7018F043BB00BFFC
:1029A80013D60020431E032B03D80130C0B218F001
:1029B80039BB7047FFF750BF08B50B4B0B4A1B7864
:1029C80012686BB10A490B68D31A312B08D9094B25
:1029D8000D200A60197881F00101197018F022FBA6
:1029E800BDE8084002F006BB13D600205CF30020C7
:1029F8008CE30020BFF3002000207047704700BF21
:102A0800036D0BB101207047406D003818BF0120DD
:102A1800704700BF0368184703680868184700BF75
:102A280030B4029D8C4611461A682B680446039DF3
:102A380024682D68DCF80000A4460295049D2D78D2
:102A4800039530BC604700BF704700BF704700BFA8
:102A5800034A1368013B13600BB9024A13607047BD
:102A6800B8E70020BCE70020064B994210B500F1FA
:102A78000C0405D008461AF081F8002808BF002485
:102A8800204610BD4C26002010B504461C2118F025
:102A9800E3FC204610BD00BF1C2118F0DDBC00BFC0
:102AA80010B5C0B00446EB220A4905A818F036FC58
:102AB800094902A817F018FD012105AB02AA204612
:102AC80000914FF4CA710FF085FB02A817F05AFD68
:102AD80040B010BDF80D0020EC0D002010B5FCB082
:102AE800044640F2D9120A4905A818F017FC09490A
:102AF80002A817F0F9FC012105AB02AA20460091B3
:102B0800C8210FF067FB02A817F03CFD7CB010BD90
:102B1800CC100020EC0D002010B5ADF5007D04466A
:102B280040F2E5120A4906A818F0F8FB094903A87B
:102B380017F0DAFC012106AB03AA20460091C82150
:102B48000FF048FB03A817F01DFD0DF5007D10BD23
:102B5800E40E0020EC0D002010B5ADF5816D0446A3
:102B680040F2F2320A4905A818F0D8FB094902A830
:102B780017F0BAFC012105AB02AA20460091C82132
:102B88000FF028FB02A817F0FDFC0DF5816D10BDB4
:102B980068080020EC0D00200B46114630B591B0B6
:102BA8000546184614460393FFF7FCFE0E4A0F49E4
:102BB800039B002C08BF11460D4A009120210DEB04
:102BC800010027F0F7FD0B4905A817F08DFC01213E
:102BD80008AB05AA28460091C8210FF0FBFA05A802
:102BE80017F0D0FC11B030BDAC0D0020600C0020F7
:102BF800640C0020700C002000220421FFF7CCBFD9
:102C080001220421FFF7C8BF00220321FFF7C4BF38
:102C180001220321FFF7C0BF00220221FFF7BCBF3A
:102C280001220221FFF7B8BF00220121FFF7B4BF3C
:102C380001221146FFF7B0BF10B5044686B0002048
:102C4800FFF7A0FE0020FFF7A3FE084903A817F02E
:102C58004BFC0121064B03AA20460091C8210FF026
:102C6800B9FA03A817F08EFC06B010BD700C00204E
:102C7800A80D002010B5044686B00020FFF782FE9C
:102C88000120FFF785FE084903A817F02DFC012154
:102C9800064B03AA20460091C8210FF09BFA03A80F
:102CA80017F070FC06B010BD700C00205C0C002002
:102CB80010B50446806D18B125F034FB0023A365D8
:102CC800236D2BB104F11800BDE8104016F05ABB73
:102CD800636D002BF6D110BD10B586B004460E20EA
:102CE80017F052FF0A220146684617F09FFC09496F
:102CF80003A817F0F9FB6B4603AAC82120460FF07A
:102D080099FA03A817F03EFC684617F03BFC06B09A
:102D180010BD00BF700C0020074B70B51C6805463D
:102D2800013C1C600CB1284670BD044E306832F07E
:102D380053FA2846346070BD74E4002078E400201B
:102D4800074B70B51C680546013C1C600CB1284651
:102D580070BD044E306832F02FFA2846346070BDDA
:102D6800D4E50020D8E50020012A02D022B10020B5
:102D7800704701600020704702600020704700BF64
:102D880010B5A2B00B4670220A4906A81C6818F0B4
:102D9800C5FA094903A817F0A7FB012106AB03AA46
:102DA80020460091C8210FF015FA03A817F0EAFB96
:102DB80022B010BDC8200020EC0D002010B504463C
:102DC800806D00B110BD4FF4807025F0A3FAA065A6
:102DD800B0B10022236D02703BB101464FF48072FE
:102DE800184615F01FFFA06D10BD636D002BE9D0CC
:102DF80001464FF48072184613F0ACFEA06D10BD6A
:102E0800014B1846A36510BDC6F3002038B5056D03
:102E18006DB10BB1002038BD1146284614F028FFCB
:102E28000028F7D02846BDE8384015F0C3B8446DEF
:102E3800002CEFD0204612F03BFE0028EAD02046B6
:102E4800BDE8384013F0AEBC8A79A2F150031B06E6
:102E580022D402F26C72F0B54B7985B0046D01335F
:102E68000D798E784F78DBB209784CB120460196FF
:102E78000095CDE90271022115F030F805B0F0BDDA
:102E8800406D0028FAD001960095CDE90271022123
:102E980013F0CCFB05B0F0BD0020704710B5044618
:102EA800006D80B1037813F0700F00D110BD0021C0
:102EB80014F0DEFE606D0028F8D000220023BDE883
:102EC800104012F0F5BD606D0028EFD090F8313059
:102ED80013F0500FEAD000220023BDE8104012F092
:102EE800E7BD00BF036D10B50C4682B02BB30DF1E2
:102EF800060201A9184614F061FA38B3BDF8043087
:102F0800BDF8062053EA020120D0C2F3451C02F0A6
:102F18001F00D20AC3F34311400084F801C0A27015
:102F28005A0A013903F01F0302F5EA6220700120F2
:102F380061712371A27102B010BD406D30B10DF105
:102F4800060201A912F05AFC0028D7D1002002B0CD
:102F580010BD00BF036D10B50C4682B02BB30DF148
:102F6800060201A9184614F019FA38B3BDF804305E
:102F7800BDF8062053EA020120D0C2F3451C02F036
:102F88001F00D20AC3F34311400084F801C0A270A5
:102F98005A0A013903F01F0302F5EA622070012082
:102FA80061712371A27102B010BD406D30B10DF195
:102FB800060201A912F010FC0028D7D1002002B0A7
:102FC80010BD00BF012A02D1016000207047022A0B
:102FD80005D0032AF9D0002AF7D10260F5E70B687B
:102FE8000360F2E7012A02D1016000207047022A3B
:102FF80005D0032AF9D0002AF7D10260F5E70B685B
:103008000360F2E7012A02D1016000207047022A1A
:1030180005D0032AF9D0002AF7D10260F5E70B683A
:103028000360F2E7006990B10368154A1B6993428F
:1030380025D1036D63B1187810F0080007D0D8695E
:103048005B69C01A48BF6FF0004070471846704768
:10305800436D002BFAD093F8310010F00800F6D039
:10306800186919685A69401A5B6862EB0303B0F182
:10307800004F73F10003EAD36FF000407047184720
:103088009D0C0000036923B31968134A10B58C68B6
:1030980082B0944214D1186D48B101220DF1070194
:1030A80014F09EFB90B19DF8070002B010BD586D5A
:1030B8000028F8D001220DF1070112F013FCF1E706
:1030C80001220DF107011846A047EBE74FF0FF304A
:1030D800EBE74FF0FF307047750B0000036963B1F1
:1030E8001A68074992698A4208D1186D08B114F024
:1030F800EFBE586D08B113F023B970471846104752
:10310800C50B000000B5006983B08DF8071060B1E9
:103118000368104ADB68934215D1036D43B101225D
:103128000DF10701184614F07FFF03B05DF804FBAA
:10313800406D0028F9D001220DF1070113F0A4FB1E
:1031480003B05DF804FB01220DF10701984703B0B5
:103158005DF804FB010C0000036973B11A680849A3
:1031680052698A4207D1186D08B114F00DBC586D28
:1031780018B112F087BC184610474FF0FF3070475F
:10318800350B0000036D13B1586900217047436D7A
:1031980013B1D3E90001704718461946704700BFBC
:1031A800036D13B1D86900217047436D13B1D3E99A
:1031B8000401704718461946704700BFF0B595B02E
:1031C80000224FF47A74244F1831054604A88DF86C
:1031D8000C200097CDE90124CDE9122216F03EF922
:1031E800129B002B2DD05C20002618F031F9019B92
:1031F80004464660C36004A9029B183040F8083CA6
:103208009DF80C3000F8043C144B40F8183C144B63
:1032180040F8103C16F074F8124B4FF47A72A7601D
:103228002B606368A66501336E602E73AA602C61FB
:1032380063600D4B04A8009316F0A4F8284615B057
:10324800F0BD139B002BCED1064A2B732A602B614D
:10325800C5E90134EDE700BF582400207C24002094
:10326800D82400202C24002090220020836C13B145
:10327800184614F089BBC06C08B112F003BC4FF0BB
:10328800FF307047036D13B1184614F07DBB406DD5
:1032980008B112F0F7BB4FF0FF307047036D33B140
:1032A8001B7813F0700F14BF012000207047406D89
:1032B80030B190F8313013F0500F14BF01200020C6
:1032C800704700BF036D13B1184614F089BA406DFA
:1032D80008B112F007BB4FF0FF307047836C00B5A0
:1032E80083B063B101220DF10701184614F078FA92
:1032F80001280CD19DF8070003B05DF804FBC06CF1
:1033080028B101220DF1070112F0ECFAF0E74FF0B5
:10331800FF30F1E7036D13B1184614F0D9BD406DC5
:1033280008B113F00DB87047836C13B1184614F048
:10333800CFBDC06C08B113F003B87047836C13B1EC
:10334800184614F071BEC06C08B113F09DBA7047EE
:10335800036D13B1184614F067BE406D08B113F041
:1033680093BA704700B5836C83B08DF8071043B1EA
:1033780001220DF10701184614F056FE03B05DF85E
:1033880004FBC06C0028F9D001220DF1070113F0ED
:103398007BFA03B05DF804FB8A79A2F150031B069F
:1033A80022D402F26C72F0B54B7985B0046D01330A
:1033B8000D798E784F78DBB209784CB120460196AA
:1033C8000095CDE90271042114F088FD05B0F0BD27
:1033D800406D0028FAD001960095CDE902710421CC
:1033E80013F024F905B0F0BD00207047036D53B108
:1033F800187810F008000DD0D8695B69C01A48BF6A
:103408006FF000407047436DA3B193F8310010F09E
:10341800080000D17047186919685A69401A5B6832
:1034280062EB0303B0F1004F73F10003F2D36FF0C6
:10343800004070471846EDE7836C53B1187810F0D8
:1034480008000DD0D8695B69C01A48BF6FF000400A
:103458007047C36CA3B193F8310010F0080000D195
:103468007047186919685A69401A5B6862EB030368
:10347800B0F1004F73F10003F2D36FF000407047D2
:103488001846EDE70369D3B10E4810B41C68E46828
:1034980084420FD1186D18B15DF8044B14F0C4BD07
:1034A800586D18B15DF8044B13F0EEB900205DF8C3
:1034B800044B7047184623465DF8044B1847002014
:1034C800704700BF010C000038B504460C4B806DF6
:1034D800236018B124F026FF0023A365236D04F1AF
:1034E80018054BB1284615F04DFF064B2846A3603A
:1034F80015F048FF204638BD636D002BF2D1F4E784
:103508007C2400209022002038B504460E4B806DA4
:10351800236018B124F006FF0023A365236D04F18E
:1035280018056BB1284615F02DFF084B2846A360F7
:1035380015F028FF20465C2117F08EFF204638BD85
:10354800636D002BEED1F0E77C2400209022002050
:1035580008B53921064819F0CBF8064816F0DAFE06
:103568000120FFF70FFA044B01221A7008BD00BFB3
:10357800B00D002068CF0020BCF3002030B4029CBE
:1035880011469C4634B1012C1CD0022C0ED00020D0
:1035980030BC7047056DF5B14FF0FF33934274EBC3
:1035A8000C04F4D3284630BC14F062BB026D0AB395
:1035B800D36959184CF10003002BE8D1104630BCF0
:1035C80014F056BB026D62B1536959184CF10003EF
:1035D800002BDCD1F2E7406D0028D8D030BC12F0C7
:1035E80067BA406D0028D2D0D0E900238A184CEB86
:1035F8000303F3E7406D0028C9D0D0E9042330BCA9
:103608008A184CEB030312F053BA00BFF0B5D0E9A7
:10361800346587B0044615B16B6801336B60D4F824
:10362800B400D4F8B03026499B1A02440868C4F89C
:10363800B030C4F8B420C4F8C000002B38D184F8E6
:10364800A430B36803B93371606BA0B1049205AAC2
:103658000B6804F12C00009202A9D4F8A820A76BEB
:103668009B1A039403AA0593E36B029304ABB84730
:103678003368EBB1B3680022C4F8B420DBB996F91B
:10368800044014F10D0F18D07DB16B68013B6B60DD
:103698005BB92B6828469B689847AB68013BAB60D1
:1036A8001BB92B682846DB689847204607B0F0BD51
:1036B800B368002BE3D00024E6E70123B360E3E717
:1036C8005CF3002070B5244B044605690360002DA7
:1036D80032D06E68013E6E6076BB2B681F4ADB6A8B
:1036E80093422FD1A86D10B124F01CFEAE652B6D4E
:1036F80023B305F1180015F045FE2569E5B12B68DF
:10370800174A5B68934224D1164BA86D2B6018B1F9
:1037180024F008FE0023AB652B6D05F11806A3B154
:10372800304615F02FFE104B3046AB6015F02AFEE0
:103738005C21284617F090FE204670BD6B6D002B6B
:10374800D7D1DAE728469847D7E76B6D002BE7D142
:10375800E9E728469847EFE72C2400206105000098
:10376800B90D00007C2400209022002070B5264B63
:10377800044605690360002D32D06E68013E6E6014
:1037880076BB2B68214ADB6A934233D1A86D10B10E
:1037980024F0C8FDAE652B6D43B305F1180015F094
:1037A800F1FD2569E5B12B68194A5B68934228D178
:1037B800184BA86D2B6018B124F0B4FD0023AB653D
:1037C8002B6D05F11806C3B1304615F0DBFD124B21
:1037D8003046AB6015F0D6FD5C21284617F03CFE5C
:1037E8002046142117F038FE204670BD6B6D002B63
:1037F800D3D1D6E728469847D3E76B6D002BE3D1A2
:10380800E5E728469847EBE72C24002061050000EF
:10381800B90D00007C240020902200202DE9F04FF3
:103828009FB09846289F9DF8A460002A00F09981CF
:10383800A84D2869002800F091810368A64C1A6BEE
:10384800A24240F05382026D002A00F07482DB68C5
:10385800A2498B4240F0B68213463A464146184682
:1038680014F0E2FB002E00F079812869002800F0AE
:10387800758103681B6BA34240F0D382036D002B54
:1038880000F0CA822E693368DFF88082DB6A43451C
:1038980040F09582B06D18B124F044FD0023B36563
:1038A800336D002B00F0FF8206F1180015F06AFD59
:1038B8002F697E68013E7E60002E33D13B68DB6A4B
:1038C800434540F00483B86D10B124F02BFDBE656C
:1038D8003B6D002B00F0F18207F1180015F052FD46
:1038E8002E69FEB133687E4A5B68934240F0FA82E3
:1038F8007C4BB06D336018B124F014FD0023B36520
:10390800336D06F11807002B00F0E782384615F0F2
:1039180039FD754B3846B36015F034FD5C213046EF
:1039280017F09AFD00232B613421704818F0E0FE4F
:1039380000256F4816F0EEFC04A903A8CDE903554D
:1039480011F098F9002800F075822B46694A6A49F7
:103958000AA815F031FE1C9B002B00F08F825C201A
:10396800002717F075FD5F4B0EAD0646C0E900371E
:103978000B9B2946183040F80C3C604B40F8103C33
:103988000C9B40F8083C9DF8343000F8043C15F0D6
:10399800B7FC5B4BB765B3604FF47A730697079330
:1039A80073688DF820700133564F09960597736038
:1039B800DFF834912846CDF8289015F0E3FC0998F3
:1039C800002800F0478203681B6BA34240F03E8248
:1039D800036D002B00F06C82454905A8DDE903233F
:1039E80010F09AFF099C002C50D02368DFF81C8146
:1039F800DB6A434540F06E82A06D18B124F092FC5A
:103A08000023A365236D002B00F05C8204F11800ED
:103A180015F0B8FC099D6C68013C6C60002C33D132
:103A28002B68DB6A434540F06D82A86D10B124F025
:103A380079FCAC652B6D002B00F05C8205F1180059
:103A480015F0A0FC099CFCB12368254A5B689342E9
:103A580040F06882234BA06D236018B124F062FC0B
:103A68000023A365236D04F11805002B00F0528292
:103A7800284615F087FC2846C4F8089015F082FC03
:103A88005C21204617F0E8FC00230993DDE90301D7
:103A980011F020F925211C4818F02AFE144816F0C8
:103AA80039FC099C0597002C58D06568013D656074
:103AB800002D53D12368154ADB6A934240F01F82D8
:103AC800A06D10B124F02EFCA565236D002B00F02D
:103AD8000C821DE078CF0020B1020000010C00002C
:103AE800B90D00007C24002090220020141300202F
:103AF80068CF002078200020ACDE0020D8240020E9
:103B0800582400202C240020A01300206105000068
:103B180004F1180015F036FC099CFCB12368AE4A84
:103B28005B68934240F0FB81AC4BA06D236018B1F9
:103B380024F0F8FB0023A365236D04F11805002B7E
:103B480000F0E381284615F01DFC2846C4F80890CB
:103B580015F018FC5C21204617F07EFC1FB0BDE86C
:103B6800F08F9F4DFE211446284616F0B7F900281D
:103B780000F0DE80D5F88434002B00F098801946D8
:103B88000A9423460AAC974A204613F0D5FD00282C
:103B980040F09A8044F202232046924A924915F056
:103BA8000BFD1C9B002B00F0D8805C204FF0000917
:103BB80017F04EFC0B9B0EAD0446C36018300C9BEF
:103BC800294640F8149C40F8083C9DF8343000F829
:103BD800043C824B40F8183C844B40F8103C15F0EC
:103BE8008FFB63682846C4F858900133DFF82492A5
:103BF8007F4D63607F4BCDF82890A36015F0C2FB22
:103C08002B69002B00F084805A68013A5A600092B0
:103C1800002A3FD119687848C96A814240F02B814F
:103C2800986D28B1019324F07DFBDDE900239A65A6
:103C38001A6D002A00F0BB8003F1180015F0A2FBF2
:103C4800D5F810A0BAF1000F24D0DAF80030624A93
:103C58005B68934240F0B080604BDAF85800CAF8CD
:103C6800003020B124F05EFB0023CAF85830DAF89F
:103C780050300AF1180B002B00F00F81584615F050
:103C880081FB5846CAF8089015F07CFB50465C2129
:103C980017F0E2FB2C61002C3BD12421574818F087
:103CA80027FD57481FB0BDE8F04F16F033BBD5F8D5
:103CB8008814002962D00AAC4A4A1693204612F0AA
:103CC800B5F900283FF466AFD5F8841400295BD015
:103CD8000023444A20460A93012313F02DFD0028AF
:103CE8003FF458AF204614F02DFE53E790470028C4
:103CF8003FF4B8AD286900283FF430AF0368414A63
:103D0800DB6893425ED1036D002B7FF4A6AD18E00B
:103D18002C6123683C4A1B6B934257D1236D7BB3BC
:103D28001D213A4818F0E4FC354816F0F3FA80E50E
:103D380022213748B3E7426D52B1DB68314A9342DA
:103D480040D1406D20B13A46414612F09DFD89E5CB
:103D5800002E3FF403AF28698BE51D9C002C7FF4EF
:103D680024AFDFF8B0900EA8214DCDF8289015F0BB
:103D780009FB2B69002B7FF447AF8EE70AAC09E7F4
:103D8800636D002BCCD188E7D5F88834002B3FF43D
:103D980001AF169120461946124A012312F046F93E
:103DA80000283FF4F7AE204612F0A4F9F2E65A6D67
:103DB800002A7FF441AF43E7504698476AE7304608
:103DC800984775E53A46414698474BE52046984757
:103DD80000283FF462AFA3E7B90D00007C2400205F
:103DE800A8DE002078200020ACDE0020D8240020A7
:103DF80078CF00205824002061050000EC12002034
:103E080068CF0020010C0000B1020000CC12002095
:103E1800A812002090220020436D002B7FF432ADC1
:103E28009CE6984700283FF499AE2E69002E3FF48F
:103E38007BAD28E520213D4818F05AFC3C4816F097
:103E480069FADDE9030110F045FF87E69847002885
:103E58007FF4C2AD2C21374818F04AFC344816F0DC
:103E680059FADDE9030110F035FF099C0597002C8C
:103E78007FF41BAE72E618468847E1E61D9B002BCF
:103E88007FF46DAD4FF47A722B4F0EAD8DF8203064
:103E980005970993CDE906328AE5DAF85430002B04
:103EA8007FF4ECAEEDE6736D002B7FF4FDACFFE420
:103EB800436D002B7FF490ADCCE77B6D002B7FF436
:103EC8000BAD0DE5636D002B7FF4A0ADA2E5384680
:103ED800984705E5204698479CE5736D002B7FF4CD
:103EE80015AD16E5304698471CE5636D002B7FF449
:103EF8000FAE11E66B6D002B7FF4A0ADA2E5204656
:103F0800984709E6284698479CE5636D002B7FF49F
:103F180019AE1AE6636D002B7FF4AAADABE5204617
:103F280098471BE620469847AEE500BF4C13002093
:103F380068CF0020701300202C24002038B50023FF
:103F4800044641F28832C0E90133C0E90333C0E9CD
:103F58000533C0E90733C0E90933C0E90B33C0E9C9
:103F68000D33C0E90F33C0E91133C0E91333C0E999
:103F78001533C0E91733C0E91933C0E91B33C0E969
:103F88001D33C0E91F33C0E92133C0E92333C0E939
:103F980025334FF4807084F8A430C4F8A830A4F80E
:103FA800AC00C4F8C820A4F8CC3084F8CE30216026
:103FB800C4E92733C4E92C33C4E92E33C4E93033C8
:103FC800C4E93433C4E93633E1B1244B084640210F
:103FD8001B68C4F8C03002F007FA2146206802F0D6
:103FE8003DFA1F49206802F049FA1E49206802F08C
:103FF8006DFA1D49206802F091FA01221B492068D8
:1040080002F0C8FA1C2017F023FA012200231849ED
:10401800D4F8D4500160C46003744361C0E901223C
:1040280000F10C02C4E934208DB16B68013B6B6070
:104038006BB92B6828469B689847AB68013BAB6017
:104048001BB92B682846DB689847D4F8D020094963
:1040580020460B6801330B60D36038BD5CF3002049
:10406800051E0000BD0E00004D1C00000D1F0000C5
:1040780028260020A8E30020C369F0B50E4683B0C7
:10408800002B4CD0037B0446002B3BD14B8B23F0F9
:1040980040039BB22949E020738318F039FD054697
:1040A800002838D03146FFF749FFD5E9347616B1F4
:1040B800736801337360626AE36901950092002BAB
:1040C80039D0236A01AA04F1140069469847BB68ED
:1040D800E3B997F9044014F10D0F19D07EB1736854
:1040E800013B73605BB9336830469B689847B36897
:1040F800013BB3601BB933683046DB6898472046FC
:1041080003B0F0BD4B8B43F04003C3E70024E5E761
:104118000123BB60E2E7304603F01CF828B93046BB
:1041280003F018F804460028E9D030466FF00C0474
:1041380002F034FEE3E718F011FD00BF382100203B
:1041480011B10AB9FFF798BF0020704770B504464F
:10415800006820B11AB111B1057D042D02D00025E7
:10416800284670BDB0F86450002DF8D0954228BF9D
:104178001546AAB204F0DCFE06460028EFD1D4F8B2
:10418800B83020682B44C4F8B83005F073FC20B16F
:104198003546C4F8B860284670BDD4F8B810D4F8CD
:1041A800B030074A0B4401211268C4F8B800284609
:1041B80084F8A410C4F8B030C4F8A82070BD00BFBB
:1041C8005CF3002010B50446006884B048B30021B1
:1041D800019002F043F90021019802F077F90021DB
:1041E800019802F04BF90021019802F097F900229A
:1041F8000198114602F0CEF9206802F0ABFF90B9A1
:10420800D4F8D0309A68CAB10022236A226043B138
:1042180003AA02A9D4E90930CDE9020404F118007F
:10422800984704B010BD20680028EDD002F0B6FD14
:10423800D4F8D0309A68002AE6D1F3221A71E3E75D
:1042480038B5044600680D4618B1B4F8BC1002F041
:1042580069F81DB9012384F8AC3038BD2046BDE8A3
:104268003840FFF7AFBF00BF38B5036804460BB14D
:10427800FFF7A8FFD4F8D0301A680AB100221A60F4
:10428800D4F8D45025B16B68013B6B60002B3AD051
:10429800D4F8983023B104F19001032208469847D6
:1042A800D4F8843023B104F17C01032208469847EE
:1042B800236F23B104F16801032208469847E36D90
:1042C80023B104F15401032208469847A36C23B193
:1042D80004F14001032208469847636B23B104F1B7
:1042E8002C01032208469847236A23B104F11801D8
:1042F800032208469847E3681BB1211D032208469C
:104308009847204638BD2B6828469B689847AB6875
:10431800013BAB60002BBBD12B682846DB68984774
:10432800B6E700BF30B50446006887B00D46C8B18F
:104338000021019002F092F80021019802F0C6F8DD
:104348000021019802F09AF80021019802F0E6F89D
:1043580000220198114602F01DF9206802F0FAFEC9
:1043680000232360A36C63B1226D0DF10F038DF858
:104378000F5004A904F14000E56CCDE9042405AA16
:10438800A847236A43B105AA04A9D4E90930CDE9AD
:10439800040404F11800984707B030BD70B5D0E99F
:1043A8003454E4B1636801336360AB6813B9022322
:1043B8002971AB60FFF7B6FF6368013B63606BB9B7
:1043C800236820469B689847A368013BA3602BB9E4
:1043D80023682046DB68BDE87040184770BDAB68AD
:1043E80013B902232971AB60BDE87040FFF79ABF8B
:1043F8002DE9F04F87B005468B4690469DF9406001
:10440800002A64D0002E62D11C46002B00F0948054
:104418004C4B1B68C0F8C0300B689A68002A54D00F
:104428001E684FF001094FF0000AC6B12B6F2668CD
:1044380085F8AD90C4F800A0DBB1AB6F04AA03A95E
:1044480005F16800039305ABCDE904546C6FA047F0
:1044580066B1DBF8003034461E68002EE6D12046EF
:104468002468066001F0F2F9002CF8D107B0BDE825
:10447800F08FEB6D23B3637B02A905F1540085F837
:10448800CE306B6E6268029363890395CDE904238D
:1044980005AB03AA009304AB2F6EB847DBF80030D6
:1044A8001B681BB9204601F0D1F9D1E795F8AD306A
:1044B80033B96289D5F8BC301344C5F8BC30F1E78C
:1044C8006189404601F02EFFECE71A71A8E716F162
:1044D8000D0F29D0DBF800309A6812B904221E713A
:1044E8009A60C5F80080B8F1000F14D0002140464A
:1044F80001F0B4FF0021404601F0E8FF00214046EA
:1045080001F0BCFF0021404602F008F800224046B6
:10451800114602F03FF80023314628462B6007B0C9
:10452800BDE8F04FFFF7FEBE40F24333064A0749A5
:10453800074815F00BFFCDE707B0BDE8F04FFFF7D0
:1045480041BE00BF5CF30020B81400200415002011
:1045580068CF002030B51D4685B01346D0F8D4404A
:10456800D0F8D0200394029214B1626801326260DC
:104578000A46009502A9FFF73BFF029B9A68E2B939
:1045880093F9045015F10D0F14D0039C7CB16368A6
:10459800013B63605BB9236820469B689847A36822
:1045A800013BA3601BB923682046DB68984728466F
:1045B80005B030BD01229A60E7E70025E5E700BFB6
:1045C8000B689A6802B91A7190F8AC30002B39D18F
:1045D800214A90F8A410126830B585B0C1B1D0F85E
:1045E800C810A9B1D0F8A840141BA14210D8D0F81F
:1045F800842080F8A4304AB1029003AB01A9039447
:10460800D0E922527C30019202AAA84705B030BDF9
:10461800D0F8C43043B1D0F8C0404FF47A71121BBF
:1046280001FB03F39A4212D2D0F89830002BEDD058
:1046380003AA02A9D0E92734CDE90240903098476F
:1046480005B030BD002380F8AC30FFF7BBBD05B026
:10465800BDE83040FFF7B6BD5CF3002030B50A4630
:1046680083B0D0E93413CDE9001313B1596801318F
:1046780059606946FFF7A4FF009B9A68E2B993F96D
:10468800045015F10D0F14D0019C7CB16368013BF7
:1046980063605BB9236820469B689847A368013B21
:1046A800A3601BB923682046DB689847284603B0F7
:1046B80030BD01229A60E7E70025E5E7C0F8C4109D
:1046C800704700BF90F8A430026883F00100002A08
:1046D8000CBF002000F0010000B97047137D042BC7
:1046E80001D000207047B2F86400003818BF0120DC
:1046F800704700BF2DE9F04186B00023D1F808804B
:10470800044602AD029317460593C5E90133B8F193
:10471800000F24D00E4602222846C047D6E902825E
:1047280095E8030004F118036E4686E8030093E851
:10473800030085E8030096E8030083E80300236A82
:10474800616AC4F820800493626205911BB1032258
:10475800294628469847A76206B0BDE8F081424638
:10476800DEE700BF2DE9F04186B00023D1F80880CC
:10477800044602AD029317460593C5E90133B8F123
:10478800000F24D00E4602222846C047D6E90282EE
:1047980095E8030004F12C036E4686E8030093E8CD
:1047A800030085E8030096E8030083E80300636BD1
:1047B800A16BC4F834800493A26305911BB1032252
:1047C800294628469847E76306B0BDE8F081424687
:1047D800DEE700BF2DE9F04186B00023D1F808805C
:1047E800044602AD029317460593C5E90133B8F1B3
:1047F800000F24D00E4602222846C047D6E902827E
:1048080095E8030004F140036E4686E8030093E848
:10481800030085E8030096E8030083E80300A36C1F
:10482800E16CC4F848800493E26405911BB103224B
:10483800294628469847276506B0BDE8F0814246D4
:10484800DEE700BF2DE9F04186B00023D1F80880EB
:10485800044602AD029317460593C5E90133B8F142
:10486800000F24D00E4602222846C047D6E902820D
:1048780095E8030004F154036E4686E8030093E8C4
:10488800030085E8030096E8030083E80300E36D6E
:10489800216EC4F85C800493226605911BB1032243
:1048A800294628469847676606B0BDE8F081424623
:1048B800DEE700BF2DE9F04186B00023D1F808807B
:1048C800044602AD029317460593C5E90133B8F1D2
:1048D800000F28D00E4602222846C047D6E9028299
:1048E80095E8030004F17C036E4686E8030093E82C
:1048F800030085E8030096E8030083E80300D4F882
:104908008430D4F88810C4F884800493C4F88820CC
:1049180005911BB10322294628469847C4F88C7094
:1049280006B0BDE8F0814246DAE700BF2DE9F04164
:1049380086B00023D1F80880044602AD02931746DA
:104948000593C5E90133B8F1000F28D00E460222BD
:104958002846C047D6E9028295E8030004F190038F
:104968006E4686E8030093E8030085E8030096E8AE
:10497800030083E80300D4F89830D4F89C10C4F8F6
:1049880098800493C4F89C2005911BB10322294602
:1049980028469847C4F8A07006B0BDE8F0814246A2
:1049A800DAE700BF006818B1037D042B01D00020AE
:1049B8007047B0F8640070470022018010B4064CBC
:1049C8000273C0E90142C0E904225DF8044BC0E962
:1049D8000622C0E9082270479C2500202DE9F041F5
:1049E80086B00023D1F80880044602AD029317462A
:1049F8000593C5E90133B8F1000F24D00E46022211
:104A08002846C047D6E9028295E8030004F114035A
:104A18006E4686E8030093E8030085E8030096E8FD
:104A2800030083E80300E369216AC4F81C80049347
:104A3800226205911BB103222946284698476762DE
:104A480006B0BDE8F0814246DEE700BF036903B166
:104A5800704730B583B0044602F09AFA0546C0B1F3
:104A68004021206901F0C0FCA368228801A92846DA
:104A7800019301F021FB70B9FF21284601F000FCE9
:104A880048B12146206101F0E9FC0549206901F09F
:104A98006DFD03B030BD284602F05CFBF9E700BFAE
:104AA800F119000010B50446006960B1002101F059
:104AB800D5FC2069002101F059FD206902F04AFB6C
:104AC80010B90023236110BD206902F067F90023A3
:104AD8002361F8E710B50446FFF7E4FFE36923B163
:104AE80004F11401032208469847204610BD00BF70
:104AF80001737047F0B5292195B0AB4817F0F8FD60
:104B0800AA4815F007FCAA49AA4AAB4BAB48AC4CDB
:104B18000D685268AB495B68406864680291039409
:104B2800CDE90412CDE90613CDE9081006AB04AAB5
:104B380002A9284606F068F8002840F0328244218D
:104B4800A14817F0D5FD994815F0E4FB1E219F48B0
:104B580017F0CEFD954815F0DDFB41F28831284667
:104B680006F05AF8002840F014824021984817F0BF
:104B7800BFFD8E4815F0CEFB08A9284606F0DEF8E2
:104B880029460AA810AC06F0C7F81A21914817F070
:104B9800AFFD86490AA815F031FB844815F0BAFB29
:104BA80000208D498D4B8E4ACDE9101021468D4845
:104BB800CDE9123210F0AAF9129B1BB1032221464B
:104BC800204698471721884817F092FD774815F036
:104BD800A1FB0022854B864E864D87498748139650
:104BE8001295CDE91032234601220FF053FB129B98
:104BF8001BB103222146204698470022804B814959
:104C08007E48CDE9103223460122CDE912560FF035
:104C180041FB129B1BB103222146204698470023E3
:104C2800794F012279497548CDE910732346CDE9BA
:104C380012560FF02FFB129B1BB103222146204670
:104C480098470022234672496C4810971396CDE97D
:104C5800112501220FF01EFB129B1BB103222146D6
:104C68002046984700226B4B6B496448CDE91032C7
:104C780023460122CDE912560FF00CFB129B1BB103
:104C880003222146204698470023644A6449119329
:104C98000F92644A59480E9202220094CDE90C33CF
:104CA800614B1093614B1393614B12930CAB0FF054
:104CB800CDF9129B1BB103222146204698470E9B33
:104CC8001BB10CA90322084698470022594B5A49A0
:104CD8004A48CDE9103223460122CDE912560FF099
:104CE800D9FA129B1BB1032221462046984700227D
:104CF800524B53494148CDE9103223460122CDE9B0
:104D080012560FF0C7FA129B1BB103222146204608
:104D1800984700224B4B4C493848CDE9103223467E
:104D28000122CDE912560FF0B5FA129B1BB10322EE
:104D38002146204698470022444B45492F48CDE953
:104D4800103223460122CDE912560FF0A3FA129B26
:104D58001BB1032221462046984700223D4B3E497D
:104D68002648CDE9103223460122CDE912560FF02C
:104D780091FA129B1BB10322214620469847002234
:104D8800364B37491D48CDE9103223460122CDE97B
:104D980012560FF07FFA129B1BB1032221462046C0
:104DA800984700222F4B5FE0E803002068CF0020DF
:104DB80034E8002010E8002018E8002028E8002047
:104DC80020E800209C2500201404002080040020F6
:104DD800A0040020FC040020010E0000B50800001B
:104DE800C5020000E0DD00201805002009040000CD
:104DF800C9020000950800003005002010E40020DA
:104E0800C9030000340500208D0300004005002080
:104E18004C050020890500005405002031060000DB
:104E28005C05002019060000CD100000D10200002A
:104E3800750800002505000070050020E904000041
:104E480078050020E104000084050020D904000052
:104E580090050020D1040000A0050020C90400002E
:104E6800AC050020C104000052495348CDE9103276
:104E780023460122CDE912560FF00CFA129B1BB102
:104E8800032221462046984700224C4B4C494A4869
:104E9800CDE9103223460122CDE912560FF0FAF976
:104EA800129B1BB103222146204698470022454BFE
:104EB80045494148CDE9103223460122CDE9125631
:104EC8000FF0E8F9129B1BB10322214620469847B0
:104ED80000223E4B3E493848CDE910322346012294
:104EE800CDE912560FF0D6F9129B1BB103222146C9
:104EF80020469847374B002221462F481396129593
:104F0800CDE910320FF098FA129B1BB1032221460B
:104F18002046984728480FF01BF822212E4817F002
:104F2800E7FB00230A229DF82C102C4815F01CFAE8
:104F380001212B4817F0DCFB00230A229DF82D10D5
:104F4800264815F011FA0121254817F0D1FB002356
:104F58000A229DF82E10214815F006FA0121204852
:104F680017F0C6FB00230A229DF82F101B4815F0E6
:104F7800FBF901211B4817F0BBFB184815F0CAF9CB
:104F88002021194817F0B4FB144815F0C3F915B0DF
:104F9800F0BD1421154817F0ABFB104815F0BAF90D
:104FA800EAE52221124817F0A3FB0C4815F0B2F9E4
:104FB800CCE500BFBC05002010E40020B9040000C7
:104FC800C8050020B1040000D8050020A90400008D
:104FD800E405002051030000F405002068CF0020FC
:104FE800100400203005002018060020E4040020EA
:104FF8005C04002008B5094B1A7802B908BD0022E4
:10500800202107481A7017F073FB064815F082F93B
:105018000548BDE808400FF0ADBF00BFBCF3002055
:105028003C06002068CF0020E0DD0020214B70B551
:105038001C680646621C1A600CB1304670BD1E4DD5
:1050480021464FF4AC72284625F05CFE1B4B4FF00E
:10505800FF3205F127005968AA60C5F81B101A68C5
:105068009968DB68C5F81720F022C5F81F1021469B
:10507800C5F82330C5F81140A5F8154025F042FEC3
:1050880001210F4B3046C5F81C4185F82211A5F8BF
:105098002041C5F82841C5F854411D60C5E94D4473
:1050A800C5E95144C5E94B44C5E94F44C5E95344F2
:1050B80070BD00BF74E400207CE40020A814002028
:1050C80078E4002038B5374B19684A1C1A60002963
:1050D8004BD0354A3549364817F014FD354A136820
:1050E800591C1160002B55D02F4A3349334817F00B
:1050F80009FD3348FFF79AFF2B4A3249304817F029
:1051080001FD0021304815F0EFF9274A2F492E48B4
:1051180017F0F8FC2E4D2F4B2F48304A304C3149B0
:105128001360C0E900353048C1E90034C0E90034F3
:105138006FF07F4350212D4853600EF097FE1A4AB6
:105148002B492A4817F0DEFC2A4A28492A480FF03A
:1051580063FE154A2949284817F0D4FC124A284901
:105168002848BDE8384017F0CDBC274C4FF4EE7204
:10517800204625F0C7FD04F1440005F06BFE04F15C
:10518800CC0005F067FE04F5AA7005F063FE1F4B1E
:105198001C609EE71E4C204630F022F81D4B1C6018
:1051A800A2E700BFD4E50020BCCF0020F105000035
:1051B80054E80020B8E700200103000078E8002048
:1051C80038E80020C9050000ACE30020357E010066
:1051D800C0A804329C25002020E8002010E8002008
:1051E800C0A8040118E8002028E8002010E40020E6
:1051F800C51E01008C200020E0DD00207D27010075
:10520800750F000078CF0020DCE50020D8E50020ED
:10521800C0E70020BCE700202DE9F0474FF48A736F
:10522800244E254C054603FB0063894604F13008EB
:105238004FF0000A03F11007236843B1227AAA420B
:1052480005D16268494638469847C4F800A00C342E
:105258004445F1D14FF48A73002403FB0563154ECE
:10526800D97B3246E3B201349D4202D0937A022BB5
:1052780015D0042C02F58A72F4D103290DD80F4FEA
:1052880057F8210005F0D4FA4FF48A73002203FB83
:105298000566F37BF47347F82320BDE8F087D37BDA
:1052A8008B42E6D14FF48A73042203FB0563DA7359
:1052B800F3E700BF84ED00204CED00203CED00201A
:1052C8002DE9F04FDFF884A14FF48A7487B004FB0E
:1052D80000A40190E37A012B00F29D80554A52F810
:1052E800233023B994F81051002D00F08D80019BD4
:1052F8004FF48A7403FB04F404F11007574438464A
:1053080026F006FB12304FF4207281B2382000F0EC
:1053180007FB804600286BD0544400230C2603A9C1
:105328002289013F03934FF6FE7952BACDE904333F
:105338000123ADF80C2032468DF80E304FF48073FF
:10534800ADF8103000F03AFD7B787D1C2E2B52D042
:10535800002B50D02B46C5F101001C181A4613F833
:10536800011FE4B22E2901D00029F6D1D21B214613
:105378001F461FFA82FB3144494536DC3146224636
:105388004046344400F0C6FD731CA4B25A46294670
:105398009BB24046661C00F065FD3A78B6B2002A1A
:1053A800D2D13146404600F0B5FD4FF00122A31C92
:1053B80002A9029240469BB2042200F053FD4FF42A
:1053C8008A73019A03FB02AA9AF810319AF80F001F
:1053D800B3B99AF80B203523164901EB8202164916
:1053E80051F82000414605F091F9404600F02EFAA8
:1053F80007B0BDE8F08F00212F468B460C46BAE770
:1054080041F2E9430D4AEAE72946FFF705FFA5728D
:1054180007B0BDE8F08F0A4B40F20D3209490A483F
:1054280025F078F9002024F0F5FD012006F046F873
:1054380016F04CF97CED00203CED00208CA90020F2
:1054480090A90020C4A90020DCA9002084ED002038
:10545800032870B56AD83F4D4FF48A73044603FB9E
:1054680000539B7A032B70D8DFE803F00F102A0251
:105478004FF48A7300FB03F3EA58002A3AD14FF439
:105488008A73002203FB04539A7270BD324E06F0F1
:105498004BF8304B81B29A7A022A27D003F58A73E7
:1054A8009E42F8D14FF48A7302260122204603FB5C
:1054B80004535E8119819A81BDE87040FFF700BFEF
:1054C8004FF48A7202FB0052137B013BDBB2137369
:1054D800002BDAD1537B0133DBB2042B53730ED08C
:1054E80013732046BDE87040FFF7EABE1A898A4266
:1054F800D4D1CCE7013AEA50002AC0D0C5E7D37A24
:105508004BB9164B5B6833B192F810311BB90123C4
:10551800D3729381E5E700212046FFF77DFE4FF423
:105528008A73002203FB04539A7270BD0C4B40F23D
:105538002F420C490C4825F0EDF8002024F06AFDB4
:10554800012005F0BBFF16F0C1F8054B40F26E4292
:105558000649EFE784ED0020D4F100207CED00201F
:1055680090A9002050A90020DCA900206CA90020E7
:10557800704700BF012800D9704721B1054B0A6860
:1055880043F820207047044A024B126843F8202051
:10559800704700BF7CED0020CCAF002008B500208C
:1055A800FFF756FF0120FFF753FF0220FFF750FFD8
:1055B8000320BDE80840FFF74BBF00BF431E03337D
:1055C80014D891F83D3013F002030DD00B688342D4
:1055D8000FD04A68434013420BD1D34320EA02005C
:1055E800C31AB3FA83F35B091846704701231846B8
:1055F800704700231846704708B540F24632064BFC
:105608000649074825F086F8002024F003FD01200C
:1056180005F054FF16F05AF804B500203CB50020F8
:10562800DCA9002008B540F24C52064B0649074851
:1056380025F070F8002024F0EDFC012005F03EFF75
:1056480016F044F804B5002004B40020DCA90020BA
:1056580007490022074B08681A7010B906E0C068AD
:1056680020B1436F002BFAD001F0B6BE704700BFDF
:1056780064F30020D0F30020F8B522F04003012B9A
:1056880010D10646082014460D469FB20AF05CFE6B
:1056980038B100234660058145810473C7810360E2
:1056A8004373F8BD074B4FF4A6720749074825F026
:1056B80031F8002024F0AEFC012005F0FFFE16F0C2
:1056C80005F800BF04B50020A4B30020DCA9002021
:1056D800033020F0030010B501EB000EBDF80CC03C
:1056E800029CE6450DD804B10444184600234460E2
:1056F8000224036001230181418102734473C38141
:1057080010BD002010BD00BF10B50446F8B1B1F5BA
:10571800803F0AD259B18AB2038913449BB29A4294
:1057280003D890F90C00002803DB012010BD0846BF
:1057380010BD6068411A04F110008142F5D3B4F835
:105748000AC00020616062442381628110BD074B5A
:105758004FF4F2720649074824F0DCFF204624F093
:1057680059FC012005F0AAFE15F0B0FF04B5002091
:105778007CB30020DCA9002038B50446A8B1B1F5F7
:10578800803F10D269B18AB2438993420BD34068F3
:105798009B1A45182189638100208B1A6560238133
:1057A80038BD084638BD012038BD074B4FF4147288
:1057B8000649074824F0AEFF204624F02BFC0120C0
:1057C80005F07CFE15F082FF04B500207CB30020B4
:1057D800DCA90020002918DB10B5044600B3B9B1D4
:1057E8008AB2038913449BB29A4217D890F90C00E5
:1057F80000286068A0EB01010CDBB4F80AC00020A7
:10580800616062442381628110BD4942FFF7B4BFE1
:10581800084610BD04F110008142EED2012010BDEF
:10582800074B4FF4F2720749074824F073FF2046EC
:1058380024F0F0FB012005F041FE15F047FF00BF02
:1058480004B500207CB30020DCA90020F8B505468B
:10585800002849D0002608E02C69002C3AD02846B8
:10586800A0470136F6B2D7B13D46AC7B1CB3013C2C
:10587800E4B2AC739CB96B7B2F6813F002042A7BEB
:10588800EAD102F00F02022A0BD0012A0ED032BB55
:10589800013628460AF0D6FCF6B2002FE4D130468D
:1058A800F8BD294609200AF063FDDAE729460820F1
:1058B8000AF05EFDD5E7144B40F2F522134914486F
:1058C80024F028FF204624F0A5FB012005F0F6FD72
:1058D80015F0FCFE0C4B40F203320E49EFE70A4B81
:1058E80040F213320C49EAE7074B4FF438720B4980
:1058F800074824F00FFF284624F08CFB012005F010
:10590800DDFD15F0E3FE00BF04B500204CB4002017
:10591800DCA9002064B4002088B400207CB30020F7
:10592800B2F5C17F2DE9F84381460F4641D012D820
:1059380022F04003012B37D03A4B40F229123A4962
:105948003A4824F0E7FE002024F064FB012005F02B
:10595800B5FD15F0BBFEB2F5207FEDD1C31CCA1C06
:1059680023F0030322F00302134403F110008342DF
:1059780028BF03469A4212D80AF046FC804680B1F6
:10598800814400212A4A09F113030781016023F0A9
:1059980003034781C26043604046BDE8F8834FF087
:1059A80000084046BDE8F8830020BDE8F843FFF74B
:1059B80063BE00221FFA80F940F2EC551D4C904658
:1059C80006E03260FB1A4FF000099FB2002FE8D0C2
:1059D800092016460AF0B8FC0246C0B109F10303D3
:1059E80000EB09010020178123F003031331106035
:1059F800EB1A21F00301D4609BB25160BB4228BF6F
:105A08003B465381B8F1000FDBD19046DAE70A4BE9
:105A180001211970B8F1000FC1D040469046FFF738
:105A280015FFBEE704B5002088B30020DCA90020DC
:105A38008000010082000100D0F30020F8B5044680
:105A4800002858D003898B421DD90D46C91A06E093
:105A58002289EB1A0A449DB2228124686CB36389B7
:105A6800AB42F5D3227B120705D1AB4203D0637B4F
:105A780013F0020608D020686581258108B1FFF778
:105A8800E5FE00232360F8BD636820461B1B5919F7
:105A98000AF0B8FB0746F8B18442ECD0184B40F244
:105AA800C1121849184824F035FE304624F0B2FADD
:105AB800012005F003FD15F009FE114B40F2B1126B
:105AC8001249114824F026FE204624F0A3FA0120AA
:105AD80005F0F4FC15F0FAFD094B40F2BF120C4931
:105AE800094824F017FE384624F094FA012005F0FE
:105AF800E5FC15F0EBFD024B4FF4CD720549E0E7EC
:105B080004B50020E8B40020DCA90020B4B40020CB
:105B1800CCB400209CB4002038B1002301330068C5
:105B28009BB20028FAD118467047034618467047BA
:105B380030B108B5837B0133DBB283730BB108BD89
:105B48007047FFF759FD00BFD0B110B5B1FA81F425
:105B58006409A1B1884214D0036843B10289B1F83D
:105B680008C06244028118461B68002BF6D10289DE
:105B78004389934214D10A8901601344038110BDFB
:105B880070470F4B40F25F320E490F4824F0C2FDB8
:105B9800204624F03FFA012005F090FC15F096FD10
:105BA800074B40F267320949074824F0B3FD00204B
:105BB80024F030FA012005F081FC15F087FD00BFC4
:105BC80004B50020B8B30020DCA90020D4B300201D
:105BD80010B50C46FFF7B8FF24B1A37B0133DBB245
:105BE800A37303B110BDFFF707FD00BF002900F044
:105BF8009B802DE9F8431F460B890D4616469342B4
:105C080070D3B0FA80F980464FEA5919002869D054
:105C18000289BB199A4265DBB8F80A406B89E41B14
:105C2800D8F80400A3EB0903696838449C42494446
:105C380028BF1C46B44228BF34462246274415F0E4
:105C48006DFBB8F80A30361BA144BB42B6B24DD33F
:105C58006A894A4559D319D12D680DB9002E41D109
:105C6800BB421CD0002D3AD1A946B8F808209A4268
:105C780004D0002ED0D13046BDE8F883D8F80030E3
:105C8800002BF6D06FF00500BDE8F883BB4208D0C2
:105C98002A896B899A421ED0B8F80A30E5E74FF096
:105CA8000009D8F80080B8F1000F00D1D6B91DB1AD
:105CB8006A892B899A4206D0B8F1000F09D1474664
:105CC800002EA9D1D7E72B68002BDBD1B8F1000F44
:105CD800F5D00027E0E72B68002BDDD0D2E74FF0A6
:105CE8000009D5E76FF00F00BDE8F883104B40F2CC
:105CF800FA321049104824F00DFD002024F08AF9EA
:105D0800012005F0DBFB15F0E1FC094B40F2FB320A
:105D18000A49094824F0FEFC002024F07BF9012000
:105D280005F0CCFB15F0D2FC6FF00F00704700BFF8
:105D380004B5002018B40020DCA9002030B40020ED
:105D480019B100230A89FFF751BF6FF00F007047A0
:105D58002DE9F04160B3B1FA81F68846760939B386
:105D68000546174622B927E093B22D68EFB1E5B191
:105D780008EB0600B5F80AC01BB19C45A3EB0C0262
:105D8800F2D9ACEB030C69681FFA8CF41944BC42D5
:105D980028BF3C462246264415F0C0FA3A1B002389
:105DA800B6B297B22D68002FE1D13046BDE8F08138
:105DB80000263046BDE8F0811646F6E7B9B32DE96E
:105DC800F843B0FA80F705467F09F0B10389914698
:105DD800934217D39AB18846164600E0C5B16C893C
:105DE80008EB07016868B44228BF344622462744B6
:105DF80015F094FA361B2D68F0D1B9451AD1002058
:105E0800BDE8F8834FF0FF30FAE76FF00F00F7E7CF
:105E1800104B40F2E5421049104824F07BFC28461C
:105E280024F0F8F8012005F049FB15F04FFC6FF05D
:105E38000F007047074B4FF49E620949074824F04A
:105E480069FC304624F0E6F8012005F037FB15F030
:105E58003DFC00BF04B5002050B50020DCA900209F
:105E680068B5002090B32DE9F0410F46044602E0E2
:105E7800246883B234B365899D42A3EB0500F7D942
:105E880021899E18B1421DDBE91A8A4207DC606845
:105E98003946184415F042FA0020BDE8F0811FFA8F
:105EA80081F8606839464246184415F037FA701B85
:105EB80082B2002AF0D007EB08012068BDE8F04163
:105EC800FFF77CBF4FF0FF30BDE8F0814FF0FF30A7
:105ED800704700BF38B514460A462189FFF720FDF0
:105EE800054628B1002322892146FFF77FFE08B91D
:105EF800284638BDFFF796FB18B90AE0006899B242
:105F080030B143898B42A1EB0303F7D94368585C4E
:105F18007047704718B90AE0006899B230B14389F0
:105F28008B42A1EB0303F7D943685A547047704773
:105F3800F0B4144F4FF48040134E4FF6FF7C39886D
:105F4800124D0131124C2B4689B2614508BF4FF4FE
:105F580040411B6813B90BE0DB684BB1DA8A8A420F
:105F6800FAD1013880B20028EBD13980F0BC7047F3
:105F7800A64202D054F8043FEBE708463980F0BC4B
:105F8800704700BF0ED600206CC4002070F30020BC
:105F980060C4002010B50446F8B1037D042B05D079
:105FA800072B0DD0032B01D0002010BD03F0E2FB1E
:105FB80048B905232046237503F05CFD002010BD79
:105FC80003F0D8FB38B1431CEFD1638B002043F0BA
:105FD8000803638310BD0923ECE7074B4FF4CE7227
:105FE8000649074824F096FB204624F013F80120C0
:105FF80005F064FA15F06AFBB8BD0020ECBD00207E
:10600800DCA9002008B5D422064B0749074824F02C
:1060180081FB002023F0FEFF012005F04FFA15F068
:1060280055FB00BFB8BD0020C4BF0020DCA900207C
:1060380008B540F6B402064B0649074824F06AFB47
:10604800002023F0E7FF012005F038FA15F03EFBA9
:10605800B8BD002044C20020DCA9002008B540F6E5
:10606800CF02064B0649074824F054FB002023F0D2
:10607800D1FF012005F022FA15F028FBB8BD002059
:1060880054BE0020DCA9002008B505F04DFA024BEB
:10609800024A0343138008BD00C0FFFF0ED600204C
:1060A80008B5037D012B05D001460120BDE8084055
:1060B8000AF05EB9FFF7A6FF2DE9F0410F46144636
:1060C800804640F29F212A4A2A4805F003FA7FB306
:1060D800B8F1000F49D098F81430002B42D198F845
:1060E800096016F004060CBF0422032214B32249E7
:1060F800224B081F00EB82001B6813B913E0DB6812
:106108008BB1B3F816C0A445F9D116B15A7A520723
:10611800F5D41A681AB13D680DB1AA42EFD16FF0F3
:106128000700BDE8F081814208D051F8043FE3E759
:10613800134FCDE7FFF7FCFE044680B13B680BB177
:10614800C8F800300F4BA8F816401A68C3F800804A
:10615800C8F80C2003F07EFF0020BDE8F0816FF046
:106168000100DEE76FF00500DBE76FF00F00D8E70E
:1061780050280020B8BD002060C4002070F3002023
:10618800CCAF002068F3002070B5044616464FF4E3
:106198005671364A364805F09DF9002C5CD0237DAF
:1061A800002B52D1637A5B0714D5324B1B688BB135
:1061B800E08A01E0DB686BB1D98A8142FAD11968BB
:1061C80022689142F6D16FF00703002506B13370BB
:1061D800284670BD02200AF0B7F8054600283FD0CF
:1061E8002269E38A02610122C3820275627D4275D7
:1061F800627A4272227A0272E27AC272A27A827257
:106208002268026083B9237D012B2CD0214601200E
:106218000AF0AEF8174B18491A68A961EA601D60C0
:1062280003F018FF0023D1E7144A1368A34209D0EA
:106238002BB1D968A1420CD00B46002BF9D1002311
:10624800E360E0E7E3681360F9E76FF00E03002509
:10625800BCE7E268DA60F2E725466FF00F03B5E7BE
:106268004FF0FF33B2E7FFF7CDFE00BFF82700205D
:10627800B8BD002070F300205546000068F30020E8
:1062880038B50D460446064A4FF44F71054805F0E7
:1062980021F9294620460022BDE83840FFF774BF9F
:1062A80028280020B8BD002038B50446E8B1028D82
:1062B80040F6683EC36A416A658ED01A754508443F
:1062C80094BFA0EB050CA0EB0E0CBCF1000F06DA96
:1062D8005B1A06D4B3F5803F16D29AB200206285C5
:1062E80038BD00221046628538BD0A4B40F2AA32FA
:1062F80009490A4824F00EFA002023F08BFE0120F9
:1063080005F0DCF815F0E2F9024B40F2BA32044924
:10631800EFE700BFB8BD002004CA0020DCA90020B8
:1063280028CA002070B505460C461B4A40F2D131F8
:106338001A4805F0CFF8ADB12E7D012E1CD02B8D5B
:10634800191989B28B4203D841F2D063994201D915
:1063580041F2D06128462985FFF7A6FF40F2B353E2
:10636800984200D870BD6B8B284643F002036B83BC
:10637800BDE8704003F07EBB084B40F2D6320849B6
:10638800084824F0C7F9002023F044FE304605F001
:1063980095F815F09BF900BFD8290020B8BD00205A
:1063A80068C60020DCA9002070B138B5044625462F
:1063B8002468686808B1FFF749FA2946032009F0FC
:1063C800D7FF002CF3D138BD704700BF58B110B5C6
:1063D8000446406808B1FFF739FA21460320BDE8B2
:1063E800104009F0C5BF704738B504460D46044A49
:1063F80040F27261034805F06DF804B1657538BD67
:106408008C290020B8BD002038B5054688B1032086
:1064180009F09AFF044650B168682968AA68EB68D1
:10642800606021606068A260E360FFF781FB20463E
:1064380038BD074B40F286620649074824F06AF9DE
:10644800284623F0E7FD012005F038F815F03EF95D
:10645800B8BD002064C70020DCA9002038B5044678
:106468000D46044A40F2CF71034805F033F804B1F1
:10647800256138BD1C290020B8BD002070B5044630
:106488000D460E4A40F2E6710D4805F023F824B196
:10649800267D012E02D0C4F8845070BD084B4FF4FD
:1064A800FD620849084824F035F9002023F0B2FDC0
:1064B800304605F003F815F009F900BFFC28002064
:1064C800B8BD002040C60020DCA9002070B50446F5
:1064D8000D460E4A40F2FA710D4804F0FBFF24B154
:1064E800267D012E02D0C4F8805070BD084B40F2C2
:1064F800FC720849084824F00DF9002023F08AFDB1
:10650800304604F0DBFF15F0E1F800BFA4280020B6
:10651800B8BD0020BCC70020DCA9002070B5044627
:106528000D460E4A40F614010D4804F0D3FF24B17D
:10653800267D012E02D0C4F8905070BD084B40F65D
:1065480016020849084824F0E5F8002023F062FD07
:10655800304604F0B3FF15F0B9F800BF80280020DA
:10656800B8BD00209CBF0020DCA9002038B5044637
:106578000D46064A40F62801054804F0ABFF1CB159
:10658800237D012B08BFA56138BD00BF4827002027
:10659800B8BD0020F8B5134604460E460E4A40F62C
:1065A80045010E481D4604F095FF2CB1277D012FAB
:1065B80003D0C4F88C606577F8BD084B40F64802F4
:1065C8000749084824F0A6F8002023F023FD3846A0
:1065D80004F074FF15F07AF894260020B8BD002066
:1065E80000C50020DCA90020002841D070B5037D3B
:1065F80005460A2B01D0012B00D870BD806F18B159
:10660800FFF724F90023AB676C6F64B12646246852
:10661800706808B1FFF71AF93146032009F0A8FE9F
:10662800002CF3D16C674FF6FF73EC6E2B865CB1D0
:1066380026462468706808B1FFF708F93146032038
:1066480009F096FE002CF3D12C6F5CB12646246825
:10665800706808B1FFF7FAF83146032009F088FEA0
:10666800002CF3D10023C5E91B33A5F8683070BDB1
:10667800704700BF2DE9F04FAA4F87B0DFF8BC92F2
:106688003B68DFF8BCA201333B6099F80030013366
:1066980089F80030A44B1E68002E00F0AD804FF042
:1066A8000008347D002C00F0F581012C00F0E38116
:1066B8000A2C00F0FE8199F80030B27F9A4200F06F
:1066C8001B81022CB37796F8423000F0F6800B2B32
:1066D80000F2F18096F89950002D00F03381326F66
:1066E800002A40F00382F36E002B00F0F58196F843
:1066F8009A300B2B00F2DF808C4B2B4413F8011CD3
:1067080096F898308B42C0F0A581B6F86050002DFD
:1067180040F08680304603F0C3FB002800F08780F5
:10672800347D062C00F0928096F809B01BF0080B17
:106738001BD0042C07D0A4F10704B4FA84F464092C
:10674800002C00F08D80316A3B68D6F894205B1AE3
:10675800774978485118A0FB0101B3EB511F40F26B
:10676800478101354FF0010BEDB2746F54B13B68AE
:10677800326A9A1AB6F9403003EB4303B2EB430F7F
:1067880080F0C080337D032B6DD0092B70D13B681E
:10679800326A9B1AF02B6BD93046D6F89040FFF737
:1067A80023FF614B1B68B8F1000F00F04781B3422B
:1067B80000F08D81F368C8F80C30BBF1000F40F091
:1067C8003081337D012BD6E9035B00F077813146B8
:1067D800012009F0CDFD00238AF8003044B16FF0A4
:1067E8000C015846A0479AF80030002B7FF452AFAE
:1067F8002E46002E7FF455AF4F4E34686CB10025FD
:10680800237D0A2B40F05E813B68226A9B1AF02B9D
:106818005AD82546E468002CF2D107B0BDE8F08FBD
:106828002946304602F04EFE002800F01C8196F8FA
:1068380099300025062B86F898503FF671AF347DC5
:106848000133062C86F899307FF46EAF738BDB0624
:1068580006D53B68326A9B1A282B01D90135EDB25F
:106868004FF0000B81E73B68326A9B1A282B93D8BC
:10687800002D91D1337F727F0133F468DBB29A42E5
:10688800337712D8D6F88C3035778AF80050002B39
:1068980000F0A5803146306998479AF80030002BFF
:1068A8007FF4F8AE002800F09A80B0462646002E05
:1068B8007FF4F7AEA0E7012533E7052B7FF60AAF93
:1068C8004FF0000B012550E72046FFF78DFE002D05
:1068D80000F0BA803368A34200F00381E368EB60FC
:1068E800227D012A00F0EA8021461C46012009F099
:1068F8003FFD002C84D190E7B046F668002E7FF467
:10690800D0AE79E7059525462468686808B1FEF792
:106918009DFF2946032009F02BFD002CF3D1059D8E
:1069280074672FE774F3002064F30020F8C4002094
:10693800B84C0A00D34D621078F30020DEF3002033
:10694800DCF30020B6F9303047F6FE719AB28A427D
:1069580002D8013213B23386B6F940209A423FF783
:10696800E0AE304602F03AFF38B1336F002B7FF4C7
:10697800D7AEF36E002B3FF4D3AE337D022B14D089
:1069880096F84220B6F93C100C2AB6F93E3028BFDA
:106998000C2203EBE1035D498A5C934047F6FF72E2
:1069A8009342A8BF1346A6F84030738E3046B6F817
:1069B8004810A6F848305B009AB2B6F860308B42AF
:1069C80028BF0B465B08934238BF1346A6F84A30E7
:1069D80000233386A6F86A3003F0FCF9A0E63046B7
:1069E800B046264603F046F8002E7FF45AAE03E779
:1069F80096F89B10464800FB01224649A1FB02126B
:106A0800B3EB521F7FF62CAF304603F01BFA002879
:106A18007FF426AF96F89B308346013386F89B3087
:106A2800A3E6338B3046726A316D0293F38A019381
:106A3800331D0093334602F09DFFC2E6B3425AD19C
:106A4800F368354A1360B8E63368A34258D1E3685F
:106A5800336045E70133DBB28B4286F89830BFF4E8
:106A680054AE15465DE6304603F004F800287FF47E
:106A7800DEAE054654E6294B40F2C3422849294870
:106A880023F048FE002023F0C5FA204604F016FD46
:106A980014F01CFE214B40F2C2422349214823F046
:106AA80039FE002023F0B6FA012004F007FD14F0A7
:106AB8000DFE1A4B40F2C4421C49EFE7174BD42293
:106AC8001B49EBE7154B40F2A5521A49E6E7134B71
:106AD80040F271521849E1E7104B40F2D942174988
:106AE800DCE70E4B40F2B3521549D7E70B4B4FF496
:106AF8009B621449D2E7094B40F275521249CDE71F
:106B0800064B40F2B7521149C8E700BF50BD0020FC
:106B1800F8240100D34D621064F30020B8BD0020B2
:106B280010C80020DCA90020E4C700203CC80020D1
:106B3800C4BF00202CC90020D4C800209CC8002055
:106B48005CC9002068C8002000C9002084C9002052
:106B580070B50C46002934D0002841D003688B4218
:106B68001FD02BB1DA68A24228D01346002BF9D1E6
:106B780000232046E360FFF737FD237D0A2B1AD058
:106B8800012B0AD0638BDA070ED4E66E002E31D1C2
:106B9800256F002D33D1636F3BBB00232375E38240
:106BA80070BDCB680360E3E743F0020320466383CC
:106BB80002F060FF237D012BE7D1EEE7E268DA609F
:106BC800D6E7114B40F68D021049114823F0A2FD7B
:106BD800002023F01FFA012004F070FC14F076FD69
:106BE800094B40F68E020B49EFE7074B4FF40A6258
:106BF8000949EAE7044B40F69D020849E5E7024BDC
:106C080040F69E020649E0E7B8BD002070C40020A7
:106C1800DCA900208CC40020E0C40020ACC4002003
:106C2800C4C400202DE9F04F054687B00E46534AEC
:106C380040F23B21524804F04DFC002D64D02C7DDD
