:0200000460009A
:100000004643464200000156000000000103030081
:1000100000000000000000000000000000000000E0
:1000200000000000000000000000000000000000D0
:1000300000000000000000000000000000000000C0
:1000400000000000010408000000000000000000A3
:100050000000800000000000000000000000000020
:100060000000000000000000000000000000000090
:100070000000000000000000000000000000000080
:10008000EB04180A063204260000000000000000FD
:10009000050404240000000000000000000000002F
:1000A0000000000000000000000000000000000050
:1000B0000604000000000000000000000000000036
:1000C0000000000000000000000000000000000030
:1000D00020041808000000000000000000000000DC
:1000E0000000000000000000000000000000000010
:1000F0000000000000000000000000000000000000
:10010000D8041808000000000000000000000000F3
:100110000204180804200000000000000000000095
:1001200000000000000000000000000000000000CF
:10013000600400000000000000000000000000005B
:1001400000000000000000000000000000000000AF
:10015000000000000000000000000000000000009F
:10016000000000000000000000000000000000008F
:10017000000000000000000000000000000000007F
:10018000000000000000000000000000000000006F
:10019000000000000000000000000000000000005F
:1001A000000000000000000000000000000000004F
:1001B000000000000000000000000000000000003F
:1001C000000100000010000001000000000000001D
:1001D000000001000000000000000000000000001E
:1001E000000000000000000000000000000000000F
:1001F00000000000000000000000000000000000FF
:10020000FFFFFFFFFFFFFFFFFFFFFFFFFFFFFFFFFE
:10021000FFFFFFFFFFFFFFFFFFFFFFFFFFFFFFFFEE
:10100000D10020434D1600600000000000000000E9
:1010100020100060001000600074046000000000F8
:10102000000000600080040000000000FFFFFFFFE0
:10103000FFFFFFFFFFFFFFFFFFFFFFFFFFFFFFFFC0
:10104000FFFFFFFFFFFFFFFFFFFFFFFFFFFFFFFFB0
:10105000FFFFFFFFFFFFFFFFFFFFFFFFFFFFFFFFA0
:10106000FFFFFFFFFFFFFFFFFFFFFFFFFFFFFFFF90
:10140000814205D051F8043B40F8043B8242F9D8B0
:10141000704700BF044A05494FF0000342F8043BFF
:101420009142FBD8704700BFC0F60020C02F0120BA
:101430002DE98848BFF34F8F00BF00BF00BF00BF3A
:1014400000F0CCFC684B0822C3F8542100BF00BF59
:1014500000BF00BF00BF00BF00BF00BF00BF00BF94
:1014600000BF00BF00BF00BF00BF00BF5F4A6049B0
:101470006048FFF7C5FF604A60496148FFF7C0FF59
:10148000604CFFF7C7FF4FF470004FF0E0210023DE
:101490005D4AC1F8880D44F823200133B02BFAD1FE
:1014A0005A4B80215A4A03F8011B9342FBD14FF05B
:1014B000E0254D4E4FF08039DFF884B1DFF884A18C
:1014C0004FF0FF31C5F8084D0027C6F80491C6F863
:1014D00000B1C6F8F490C6F8F0A0D5F8243DDFF8C6
:1014E000688143F4E0234B4AC5F8243DD8F81C300A
:1014F00023F07F0343F04003C8F81C30D8F82430B1
:1015000023F07F0343F04003C8F824309166D1668E
:101510001167516700F06AFC3F4B4049A363404BA1
:10152000E36363236B610323AF612B613D4BC5F81C
:10153000203DD5F8FC3D43F08073C5F8FC3D3A4BA7
:101540001A6842F001021A605B680B6000F098FEB6
:10155000C6F804913548C6F800B1C6F8F490C6F84C
:10156000F0A001F001F8D8F86C10314B314A41F489
:101570004051C8F86C101F60C3F80871C3F81871A7
:10158000C3F82871C3F83871936BDB0708D442F6AF
:101590001563294951651365936B43F00103936308
:1015A000244A264C936843F00113936000F0A6FC94
:1015B00000F0EAFB00F0D0FF00F090FE00F010FC1D
:1015C0002368132BFCD900F021FF2368B3F5967F25
:1015D000FBD300F009FC00F005FC00F0C9FF00F0AF
:1015E000DBFF30BFFDE700BF00800D402854030043
:1015F0005827006000000000C0F60020847B0360D4
:101600000000002000F4002041B9010000E400E0E7
:10161000A0E400E000C00A4055A10100F42E012022
:1016200031A2010000002020001000E00046C3238A
:101630000040084000400D400000C056F82E012038
:101640001B1018200C0D111300C00F40054B4FF458
:101650002A01054A05485A641864054A9963954663
:10166000FFF7E6FE00C00A40FFBFAAAA070020005D
:101670000080042010B5044600F072FFD4F8503109
:1016800023B104F5A471032208469847D4F84031E9
:1016900023B104F59C71032208469847D4F83031F1
:1016A00023B104F59471032208469847204610BDE3
:1016B00070B5114D044600F087FF06682B782BB9F2
:1016C00000F082FF034620461E6070BD206800F0D7
:1016D00083FF00232B70236023710028F0D000F0DB
:1016E00093FF054600F070FF056000F06DFF0346B4
:1016F00020461E6070BD00BF742F0120F8B56E4CEF
:10170000237813F0FD0F00D0F8BD6C494FF48035FD
:101710006B4A4CF20F00CB6E43F44063CB664FF440
:1017200080536849C2F8E450C2F8E800C2F8E410F7
:10173000C2F8E830D2F8E030002BFBDA62494FF40F
:101740008030624B4FF23805C2F8E80038204A6812
:101750004FF4804622F4005242F402024A6043F2FF
:1017600038020521C3F87C23C3F88423C3F88053CF
:10177000574DC3F89823C3F86803C3F864034FF6C2
:101780002900C3F87811C3F874114FF400416A6856
:1017900042F440426A600022C5F88810C5F88460AF
:1017A000C3F8A8034BF2E900C3F8A4030220C3F86E
:1017B000B821C3F8B421474A106331223220C3F85C
:1017C00094231622C3F8A42103F5602312225A643D
:1017D000C5F8841000F0D0FE3F49404AC5F8886043
:1017E0003F4B48681268A3FB0232920C02EB820264
:1017F00002EB82024B681B1A9A42FBD8344B4FF41F
:1018000080420220C3F8842000F0B6FE354B4FF42E
:101810000001354A59601A645A681002FCD51A6CE6
:101820004FF4000192B25960B2F5005F11D12F4818
:101830002C4A5960186453681902FCD5136C4AF29B
:1018400040104FF4000123F00F0351609BB283421C
:101850001BD01F4D4FF480371B484FF0010C6B68B5
:10186000174923F44043154A214E6B60436823F423
:1018700000334360C1F8E470C1F8E060D36E23F434
:101880004063D36684F800C0F8BD1A48154B516018
:1018900010645A681202FCD54FF400011648114A30
:1018A00059605960186453681B02FCD54FF400015D
:1018B000032351602370F8BD862F012000C00F4024
:1018C00000800D400120200000C00A4000801F4021
:1018D0000040004200841F40001000E054EB002054
:1018E00083DE1B4300802D4000000A6000000E6074
:1018F000011001008002625081005E50012300222D
:10190000037043708370C270037142718371C3713D
:10191000704700BF70B5624C2378042B00F0BE8086
:10192000FFF7ECFE2278032A01D0002070BD5D4B4A
:101930004BF2E9015C48C3F87C135C4DC3F880139B
:10194000C3F88413C3F89813C3F88813C3F88C132F
:10195000C3F890130021C3F88C21C3F89021C3F879
:10196000A821C3F89421C3F8A021C3F89821C3F893
:101970009C210123A022C36243638363C363036486
:10198000284600F019FEA0220021494800F014FE6C
:10199000484A05F1A00C2B464FF4004080215A60C4
:1019A000203323F81E0C02F5C06223F8161C634591
:1019B000F5D1B5F882304FF480603D4E4FF4B04120
:1019C00043F400533C4A06F1A00CA5F8823033469C
:1019D0005A60203323F81E0C02F5C06223F8161C4F
:1019E0006345F5D1B6F882204FF00070334B42F4D6
:1019F00000523349A6F8822000229A60C3F884106E
:101A00004FF48271C3F8C4101921C3F8C011C72163
:101A1000C3F8C4114FF48071C3F844114FF4C0618E
:101A2000C3F89021C3F88051C3F88461C3F88811CA
:101A30002449C3F80021C3F8F020C3F8EC10C3F820
:101A4000942121495A66C3F81821C3F81C21C3F810
:101A50002021C3F824211D4A9860C2F808124FF0D3
:101A6000E0224FF480211A48C2F80C114FF0010116
:101A7000184A5860BFF35B8FD2E84F0FC2E8451F8A
:101A8000002DF9D14FF0807213480421BFF35B8F12
:101A9000586201201A615A61217070BD012070BD29
:101AA000862F012000801F4000841F40C0F60020C8
:101AB00080F70020001E20200000202000802D4004
:101AC00024D1F24514000100A1AF000000F4002071
:101AD0000080FF7FE82E012012010070704700BFD8
:101AE000F8B11149114A38B5114B00250446056378
:101AF000C0E904219A8840F2DC51186843F60623B5
:101B0000A186A387C4F8360020466287094900F001
:101B10003FFD2046084900F06BFD084B28466364F2
:101B200038BD6FF00F0070475DB40000C5EE0000D7
:101B3000D02E01207C2E01205C2E01206DB40000EF
:101B40002DE9F04182B080460F461546FFF7E2FED0
:101B5000044640B315B12846FFF7D0FEB8F1000F98
:101B600058D0314C257815BB062241462F4800F04D
:101B70000BFD002836D12D4E404600F001FD3046C9
:101B800000F04AFD054600283BD0DFF8B48098F805
:101B900000408CB1264B06223068B188C3F836006D
:101BA000598783F83C20204602B0BDE8F08100F060
:101BB0001BFD00232370DEE739461E4800F0F4FCCD
:101BC0001D4B1E4A21461A4800F002FD38B32C4630
:101BD000174800F0F5FC0123204688F8003002B0D9
:101BE000BDE8F081164C2378002BC4D0284600F0C5
:101BF000E7FC0F4800F0F4FC0E4800F0D1FC257023
:101C0000B9E700F0E1FC2C460E230360204602B049
:101C1000BDE8F0816846E84600F0FAFCA1E7054817
:101C200000F0BEFCBFE700BF56F20020D02E01201E
:101C3000E4F10020F02D0120690A0100E11A0060A2
:101C4000872F012038B50C4D00240C4B2A781C60DE
:101C50009C801AB9BDE83840FFF740BF204600F02D
:101C6000AFFC074800F0BCFC064800F099FC2C7063
:101C7000BDE83840FFF732BF872F0120D02E01206A
:101C8000E4F10020F02D012000B583B0019000F0B8
:101C9000B3FC019803B05DF804FB00BF2448254B5A
:101CA000D0F88020244942F4405210B4C0F880207B
:101CB000224C234A1C6023485A60234A1862234C52
:101CC0005A622348234A9C6246F62014D86240F6A2
:101CD000A3101A634FF4C862596359634FF4C841A3
:101CE000DC603F249860D9619A611A681A4822F032
:101CF00080021A491A601A6822F00C021A601A68E7
:101D000022F0030242F002021A605C6118610020B6
:101D1000D3F8A0205DF8044B22F00202C3F8A02003
:101D20001A6822F480321A60DA6F1B6C0860704700
:101D300000C00F4000C00C402F002E0040100100DA
:101D40002200010068050C019501B200DC007A0058
:101D50007D0058004B004000C409800CB02E0120CB
:101D6000074A136843F48033136013689B04FCD55F
:101D7000044AD2F8803023F44053C2F880307047D0
:101D800000C00C4000C00F40104BA020104AD96E7C
:101D900041F4403110B4D96640F23764D96E41F451
:101DA0004071D96654649064936C1B06FCD4094A54
:101DB00040F23761A02351649364936C13F0800365
:101DC000FBD1054A13705DF8044B704700C00F400B
:101DD00000400C4000800C407A2F0120704700BF6B
:101DE000704700BF704700BF00BF704710B44FF08E
:101DF000E023002110243148C3F8941DC3F89C4D02
:101E00001124C3F8A00D2E48C3F89C4D1224C3F82A
:101E1000A00D2C48C3F89C4D2B4AC3F8A00D2B4CA9
:101E200042F015022A48C3F89C4DC3F8A00D294C76
:101E30002948C3F89C4DC3F8A00D284CC3F89C2D2D
:101E40002748284AC3F8A04DC3F89C0DC3F8A02D1D
:101E500002F5A022244C0C322448C3F89C4DC3F850
:101E6000A02D234AC3F89C0D224CC3F8A02D02F1EB
:101E70004062C3F89C4D2048C3F8A02D0C32C3F833
:101E80009C0DC3F8A02D00BF00BF00BF00BF00BF66
:101E90000122C3F8942DBFF34F8FBFF36F8FC3F8A8
:101EA000501FBFF34F8FBFF36F8FD3F8142D5DF822
:101EB000044B42F44032C3F8142D70473F00001029
:101EC0002500080709001000C02F01201300200082
:101ED000210002071400002025000813090000104B
:101EE0001600202027000B13170000401800006088
:101EF0002F000B07190000701A000080F0B5B84BD6
:101F00001822B84E0120B84F83B0C3F85C62B749BD
:101F1000C3F86072B64DC3F86462A6F53046B54C9E
:101F2000C3F86862C3F86C52C3F87052C3F87452B5
:101F3000C3F8785248F20C75DA661A675A679A67DE
:101F4000DA67C3F88020C3F88420C3F88820C1F87A
:101F50002C03A94AC1F83003C1F83403C1F838038F
:101F6000C1F83C03C1F85003A169A44B0A40A4483E
:101F7000A4491343A44AA361D4F8843043F00C036A
:101F8000C4F884304FF0FF34036843F00203036069
:101F900003682B404FF400551A439C4B0260446089
:101FA0008A689B4C13409B4A43F000538360C3688C
:101FB00023F07803C360036A134023430362036A78
:101FC0001340954A2343954C43628262C2620022C9
:101FD000D1F8B83023F03F0343F00103C0F8B83024
:101FE000D1F8BC308E4923F03F0343F00103C0F821
:101FF000BC3040F20563026105660467C0F88030BA
:10200000456644670224C0F88430036823F0020365
:1020100003608161834B8449C46143F8042B8B4284
:10202000FBD1774A136843F001031360136813F080
:102030000103FBD17A48022140F2F564906140F23D
:102040009940D16140F26641C2F8004242F2014437
:10205000C2F810127549C2F82002C2F8301240F2DC
:1020600035417348C2F83442C2F84012714CC2F88C
:10207000500242F201207049C2F854120121C2F804
:102080006042C2F864025E48C2F8A030C2F8A430D0
:10209000C2F8B0104369DA07FCD5012300244FF4DD
:1020A000803257494361C0F8A040C0F8A420C0F86E
:1020B000B0304B69DB07FCD5012300244FF400301E
:1020C0004F4A4B61C1F8A040C1F8A400C1F8B0303C
:1020D0005369DF07FCD50123002458484849536160
:1020E000C2F8A040C2F8A400C2F8B0304B69DE07C5
:1020F000FCD5D1F8003145F60D5221209BB2486144
:10210000934265D100244FF4802201233C48C1F85A
:10211000A040C1F8A420C1F8B0304369DD07FCD568
:1021200001234FF400040021354A4361C0F8A04068
:10213000C0F8A410C0F8B0305369DC07FCD5012307
:102140004FF400044FF480302D495361C2F8A04091
:10215000C2F8A400C2F8B0304B69D807FCD50123FF
:102160004FF400044FF40030254A4B61C1F8A04001
:10217000C1F8A400C1F8B0305369D907FCD50123D8
:102180004FF400042D481E495361C2F8A040C2F824
:10219000A400C2F8B0304B69DA07FCD5D1F80031A1
:1021A00045F60D5221209BB24861934250D008253C
:1021B0004FF4000422490020224B234A009015705E
:1021C0005A1A01232148224400F0F2F903B0F0BD6D
:1021D0001E4B0022C3E90022C3E9022203B0F0BD76
:1021E00000801F40F9B00100F910010000841F4079
:1021F000F970010000C00F40FFFCFF1F000300A0AA
:1022000000402A4000802A401200FFFFFF37F700FD
:102210004000008000FFF07CFF000F83630002009D
:10222000F05AF05A00422A4000432A409F041830D6
:10223000EB06180A3806180A0632012604000300C5
:1022400000000070000000707D2F0120882D01200B
:102250004FF400044FF4802201230848C1F8A04045
:10226000C1F8A420C1F8B0304369DB07FCD50123D5
:1022700010254FF0807443619CE700BF00402A4066
:10228000F0B4154A40274FF480314FF480564FF494
:1022900000554FF4404443F24200136913F0020F1B
:1022A0000ED113F4005F0FD013F4805F0ED0002B1B
:1022B000F3DA13F4803F0BD15B060BD5F0BC70470B
:1022C000946151619061E8E75561E6E75661E4E7A2
:1022D0009161E2E75761E0E700800D403F4A03204B
:1022E0003F49F3EE095AD2F880304FF0000C9FEDD1
:1022F0003D6A23F001039FED3C5A30B4C2F88030B0
:10230000C2F89000D1F8E010384DCBB2384C3948C3
:102310002B6007EE903A0B0DC1F30B21F8EEE77A34
:1023200006EE903A07EE101A334BB8EEC77A2160EA
:10233000F8EEE66A314937EEC66A37EEC55A76EEF0
:10234000C76A77EEE57A26EE266AC3ED006A25EEC7
:10235000265AD2F8803067EEA64AC0ED007AC6EE63
:10236000275A274885EE276AC4EEA76A75EE875A72
:10237000FCEEE55A36EE076A15EE904ABCEEC66AE8
:1023800043EA045376EE877AC2F8803016EE103AAC
:10239000D2F89041FCEEE77A01EA0341214317EEBF
:1023A000903AC2F89011C3F30B03D2F890110B438B
:1023B0001449C2F89031D2F8803043F00203C2F8D9
:1023C0008030114B80F840C0C1F840314FF0E0231D
:1023D000012230BCC3F80821704700BF00810D40C6
:1023E00000441F400000AA420000B442B82E012061
:1023F000B42E0120BC2E0120E42E01200000FF0F8E
:1024000000E400E000F400202DBB0100314B40F659
:10241000617210B5C3F8202140F2044400F0F0F8D6
:102420002D4A2E49D2F880302D4843F00303C2F8DC
:1024300080302C4BC1F8604102681A4203D1D1F8B8
:10244000A8319A071BD0254A4FF00041244B59630D
:10245000D2F8403143F00203C2F84031D2F84031A3
:102460009B07FBD44FF400304FF0E0211C4B4FF0A2
:102470000042C1F88C0219209A6300F07DF8184AD6
:102480004FF08040154C002190630A20164B1160DC
:102490004FF42072C4F8A801184600F08DF84FF4EC
:1024A000800203464FF4810040F243111860C4F8E3
:1024B00058311A640D4B0E4AC4F84811C3F804226F
:1024C0004FF0E0224FF400310123C2F80C11C4F8A0
:1024D000403110BD00800D4000C00F4000002E4074
:1024E00000900D40001C1E000000002000F40020A1
:1024F00015BD010008B50E4B1B6E9B0700D4FBBE3B
:1025000072B60C4B00200C4AC3F8400103F1604343
:102510000A49A3F55F2311649D46BFF34F8F4FF423
:1025200000130748074ADB6902609B68984700BFB1
:1025300000441F4000002E4000C00A40030020005D
:1025400000802020000012EBF8B500BFF8BC08BCEA
:102550009E467047000000005FF800F09DCD01002E
:102560005FF800F029AD00005FF800F029AD010030
:102570005FF800F041B302005FF800F019B001000D
:102580005FF800F009B000005FF800F07DAA0200DB
:102590005FF800F08DE000005FF800F0FDB301008F
:1025A0005FF800F0AD0501005FF800F035050100AF
:1025B0005FF800F0DDCE01005FF800F0D5AB02005F
:1025C0005FF800F0D90401005FF800F035B30200B5
:1025D0005FF800F0410801005FF800F0C5BA0000A4
:1025E0005FF800F0150901005FF800F0ADCB0000C6
:1025F0005FF800F0A9CE00005FF800F0C1B5000060
:102600005FF800F085C401005FF800F021BA000017
:102610005FF800F0C9AF00005FF800F0CDAF000038
:10262000E5000000A14D0000F1AD00006DAF00001D
:1026300009B60000D10B0100052B0100793901001A
:10264000B1460100215701000DA0010011D2010087
:10265000160355005300420020005300650072002D
:10266000690061006C0000001803540065006500FB
:102670006E00730079006400750069006E006F00E1
:102680000403090409026200030100C032080B00C0
:1026900002020201000904000001020201000524F7
:1026A000001001052401010104240206052406008E
:1026B000010705820310001009040100020A00004E
:1026C00000070503024000000705840240000009DE
:1026D00004020002FF6AFF000705810240000107B3
:1026E000050102400001000009026200030100C070
:1026F00032080B000202020100090400000102027C
:102700000100052400100105240101010424020632
:1027100005240600010705820310000509040100D5
:10272000020A0000000705030200020007058402F8
:102730000002000904020002FF6AC70007058102C7
:102740000002010705010200020100000A06000262
:08275000EF020140010000004E
:102758000000000000000000000000000000000071
:102768000000000000000000000000000000000061
:1027780020F47F6020F00F0000F5805203680430D9
:10278800013303D19042F9D10020704701207047EE
:102798002DE9F34106460D4690460024444514D2DF
:1027A800A719C7F30B0333B93846FFF7E1FF10B198
:1027B80038461BF06FF904226359384604340DEB90
:1027C800020101931BF0F0F8E8E705F12045B5F5A3
:1027D800000F08D20C4D04E0A119C1F30B0343B15B
:1027E8000434AC42F8D34FF0E023084AC3F80C2D68
:1027F80008E00846FFF7BCFF0028F1D008461BF0A8
:1028080049F9EDE7FEE700BF00C07F000400FA05C4
:102818000548064B1B1AD90F01EBA301491002D03A
:10282800034B03B118477047C0F60020C0F60020DC
:102838000000000008B5054B1BB105490548AFF37A
:102848000080BDE80840FFF7E3BF00BF00000000BC
:10285800042E0120008004602DE9F8432D4D4FF42B
:10286800FA701AF081FF2C4C2E6840F2EE282B4F9C
:10287800DFF8BC901CF090FD2378002B37D03B7814
:10288800DA0734D52B68D9F800209B1A0E2B2ED9DD
:102898002E68224FDFF898801CF07EFD237883B3E2
:1028A8003B78DB072DD52B68D8F800209B1A0E2B18
:1028B80027D91B481AF004F943211A481CF0EEFCEA
:1028C80017481AF0FDF81A2117481CF0E7FC1448BD
:1028D8001AF0F6F80B2115481CF0E0FC10481AF025
:1028E800EFF81CF00FFDBDE8F84303F0F1BB2B68CF
:1028F80022789B1B5AB1B3F5FA6FC9D81CF04CFD6E
:10290800B8E72B689B1BB3F5FA5FC5D3D1E74345FE
:10291800F4D9BDE7F82E0120942F0120932F012030
:10292800A8EB0020E40E0020280F0020440F002010
:10293800302F0120FFF790BF03F01EBF0020704723
:10294800704700BF036D0BB101207047406D003820
:1029580018BF0120704700BF03681847036808685C
:10296800184700BF30B4029D8C4611461A682B6880
:102978000446039D24682D68DCF80000A4460295EF
:10298800049D2D78039530BC604700BF704700BF99
:10299800704700BF034A1368013B13600BB9024A32
:1029A800136070475423012058230120064B994295
:1029B80010B500F10C0405D008461CF0B5FE00283F
:1029C80008BF0024204610BD0C41002010B5044665
:1029D8001C211BF061F9204610BD00BF1C211BF013
:1029E8005BB900BF70B5124B0446124D124E2A68EF
:1029F800124930461B681AF07FF8224610493046C3
:102A08001AF07AF80F4900230F480A680F4C013270
:102A1800238002240A604FF6FF72296802800C485E
:102A28000C4A038014700C480C4A0370116070BD86
:102A3800501F0120F82E0120A8EB0020C8260020F6
:102A4800FC2600205C1F01204EF20020482F0120A8
:102A5800402F0120642F0120692F0120741F0120BD
:102A68000B4B0C4A1B7812686BB90B4B196829B1D0
:102A78001B6841F28731D31A8B4204D907490B6886
:102A8800D31A312B00D870470A60FFF7ABBF00BFDD
:102A9800642F0120F82E0120781F0120581F0120E3
:102AA800F0B589B005460C46114605A801931AF001
:102AB800F1F805AA019B214628461E4F11F076FF22
:102AC800044605A81AF034F923681B4902A85E6970
:102AD8001AF0E0F8194905A81AF0DCF805AA02A9C5
:102AE8002046B04705A81AF023F902A81AF020F9E1
:102AF8002368134902A85E691AF0CCF8114905A8A1
:102B08001AF0C8F805AA02A92046B04705A81AF085
:102B18000FF902A81AF00CF90B4A0C4E214613685B
:102B28002846013313603B68336009B0BDE8F040C4
:102B380011F0EEBEF82E0120802600208C26002001
:102B480094260020A42600203C1F01206C1F012091
:102B580010B50446806D18B127F03CFF0023A3652B
:102B6800236D2BB104F11800BDE8104018F0E0BF48
:102B7800636D002BF6D110BD2DE9F0411D49CAB097
:102B88001D4C1E4A1E4B1B68266804460F68D2F867
:102B980000C01C4A1C49D2F800E01C4A1C48D2F864
:102BA80000801C4A15781C4A002D08BF10460A6888
:102BB8000AB10A689A1A194D296809B12968591A77
:102BC80040F6B835CDE90721CDE90480CDE902CE3C
:102BD800134A4FF480710AA80695CDE900672AF0D8
:102BE800F9F80AAB0F4AC8212046FFF759FF4AB047
:102BF800BDE8F081381F01203C1F0120541F01202F
:102C0800F82E0120601F01206C1F0120441F0120A5
:102C1800B82700206C2F0120682C00204C1F0120B1
:102C2800642000207021002010B5012109201AF02D
:102C380055FE012109200C4C1AF014FE0B4804F033
:102C4800B3FD012309220A490A4819F055FF0A4B26
:102C58000A4901201B68002208700F3308480949F7
:102C6800227002700B6010BD702F012058EB0020FD
:102C780018270020A8EB0020F82E0120642F01203F
:102C8800692F0120741F0120144A38B5144B1968A4
:102C9800136823B11368CB1AB3F57A7F0DD3114BA0
:102CA800002411601C801A8892B2272A0AD81A8830
:102CB8000020013292B21A8038BD0A4B1A8892B2AB
:102CC800272AF4D9084D40F2F711084B2C68084A16
:102CD80001342C60FFF7E4FE012038BD801F01207D
:102CE800F82E0120462F0120601F0120BC2D002056
:102CF8007021002010B5BCB00446FFF7C5FF58B9D5
:102D0800EB22064901A81AF029FF01AB044A4FF447
:102D1800CA712046FFF7C4FE3CB010BD90210020C8
:102D28008421002030B58BB00546FFF7ADFFB0B960
:102D38000C4B03220C4CEC461A700FCCACE80F007D
:102D48000FCCACE80F0094E803006B46074A4CF838
:102D5800040B2846ACF80010C821FFF7A1FE0BB001
:102D680030BD00BF6E2F0120882400207021002074
:102D780030B58BB00546FFF787FFB0B90C4B022280
:102D88000C4CEC461A700FCCACE80F000FCCACE83A
:102D98000F0094E803006B46074A4CF8040B2846DA
:102DA8008CF80010C821FFF77BFE0BB030BD00BFC8
:102DB8006E2F01207C2200207021002010B59CB0CD
:102DC8000446FFF761FF68B9074B01216C2201A88F
:102DD800197006491AF0C2FE01AB054AC8212046FF
:102DE800FFF75EFE1CB010BD6E2F0120981F00205B
:102DF8007021002010B5F8B0044640F2D9120649F7
:102E080001A81AF0ABFE01AB044AC8212046FFF71F
:102E180047FE78B010BD00BF182A0020842100208A
:102E280010B5FAB0044640F2E512064968461AF0B1
:102E380095FE6B46044AC8212046FFF731FE7AB05A
:102E480010BD00BFE02700208421002010B5ADF59B
:102E5800726D044640F61C72064901A81AF07EFEFF
:102E680001AB054AC8212046FFF71AFE0DF5726D21
:102E780010BD00BF500F002084210020074B70B503
:102E88001C680546013C1C600CB1284670BD044E08
:102E9800306834F001FD2846346070BD10200120F0
:102EA80014200120074B70B51C680546013C1C60C6
:102EB8000CB1284670BD044E306834F001FD284638
:102EC800346070BD702101207421012010B50C6898
:102ED80064B104F10C0019F02BFF204619F028FF0B
:102EE80020461821BDE810401AF0D6BE10BD00BF1C
:102EF800012A02D022B100207047016000207047EB
:102F080002600020704700BF012A02D022B10020D1
:102F1800704701600020704702600020704700BFC2
:102F28000B467022074910B59CB01C6868461AF019
:102F380015FE6B46044AC8212046FFF7B1FD1CB0B8
:102F480010BD00BF883B00208421002010B5044636
:102F5800806D00B110BD4FF4807027F033FDA0657F
:102F6800B0B10022236D02703BB101464FF480726C
:102F7800184618F02DFAA06D10BD636D002BE9D02E
:102F880001464FF48072184616F0BAF9A06D10BDCC
:102F9800014B1846A36510BD772F012038B5056D84
:102FA8006DB10BB1002038BD1146284617F036FA2E
:102FB8000028F7D02846BDE8384017F0D1BB446D4B
:102FC800002CEFD0204615F049F90028EAD0204619
:102FD800BDE8384015F0BCBF8A79A2F150031B0642
:102FE80022D402F26C72F0B54B7985B0046D0133CE
:102FF8000D798E784F78DBB209784CB1204601966E
:103008000095CDE90271022117F03EFB05B0F0BD35
:10301800406D0028FAD001960095CDE90271022191
:1030280015F0DAFE05B0F0BD0020704710B5044673
:10303800006D80B1037813F0700F00D110BD00212E
:1030480017F0ECF9606D0028F8D000220023BDE8E5
:10305800104015F003B9606D0028EFD090F83130BA
:1030680013F0500FEAD000220023BDE8104015F0FD
:10307800F5B800BF036D10B50C4682B02BB30DF147
:10308800060201A9184616F06FFD38B3BDF80430E2
:10309800BDF8062053EA020120D0C2F3451C02F015
:1030A8001F00D20AC3F34311400084F801C0A27084
:1030B8005A0A013903F01F0302F5EA622070012061
:1030C80061712371A27102B010BD406D30B10DF174
:1030D800060201A914F068FF0028D7D1002002B029
:1030E80010BD00BF036D10B50C4682B02BB30DF1B7
:1030F800060201A9184616F027FD38B3BDF80430BA
:10310800BDF8062053EA020120D0C2F3451C02F0A4
:103118001F00D20AC3F34311400084F801C0A27013
:103128005A0A013903F01F0302F5EA6220700120F0
:1031380061712371A27102B010BD406D30B10DF103
:10314800060201A914F01EFF0028D7D1002002B002
:1031580010BD00BF2DE9F043B2F1010954BF4C4640
:103168001446B1EB640F3DDA67100D466FF0404826
:1031780005F1010E08EB4E0650F83E404FEA4E0CA2
:1031880050F8266000EBCE0EB44205DA0CF1FF3C95
:1031980050F82C4000EB8C0EBC4540F825406546A5
:1031A800E6DBD50723D5BCF1010248BF62468C4552
:1031B8004FEA62020ADC11E0541E40F82C50944693
:1031C80048BF144661454FEA640207DA50F82250B6
:1031D80000EB820EAB42EFDC00EB8C0ECEF8003039
:1031E800BDE8F083D40700EB810EF7D48C46023A91
:1031F80048BF4A46BCEB620FD5D10CF101024FEA39
:10320800420C00EBC2020CF1FF3C52F8042CCEF841
:10321800002000EB8C0EC6E7012A02D101600020D5
:103228007047022A05D0032AF9D0002AF7D1026094
:10323800F5E70B680360F2E7012A02D1016000207C
:103248007047022A05D0032AF9D0002AF7D1026074
:10325800F5E70B680360F2E7012A02D1016000205C
:103268007047022A05D0032AF9D0002AF7D1026054
:10327800F5E70B680360F2E770B586B00446FFF720
:1032880003FD68BB264B1B7863B3264B1B68002BDA
:1032980039DD40F6FE72934232DC07EE903ADFEDFC
:1032A800225A9FED227AF8EEE77A9FED216ADFED48
:1032B800216A67EEA57AC7EE875A85EE867A27EEE9
:1032C800267AB7EEC77A1C4A102102A88DED007B3A
:1032D80029F080FD02AB194AC8212046FFF7E0FB20
:1032E80006B070BD164E40F2F711164B20463568F1
:1032F800124A0135356006B0BDE87040FFF7D0BB13
:103308009FED037BDFE79FED047BDCE7AFF30080F5
:10331800000000C02026434000000000000000001C
:10332800702F0120481F01206666E63F00F07F45A8
:1033380000003C4200007A445C200020502000201D
:10334800541F012040200020006990B10368154AED
:103358001B69934225D1036D63B1187810F00800FA
:1033680007D0D8695B69C01A48BF6FF00040704742
:1033780018467047436D002BFAD093F8310010F0CF
:103388000800F6D0186919685A69401A5B6862EB38
:103398000303B0F1004F73F10003EAD36FF000406C
:1033A800704718479515000000B5006983B08DF87F
:1033B800071060B10368104ADB68934215D1036DAA
:1033C80043B101220DF10701184617F003FA03B0C3
:1033D8005DF804FB406D0028F9D001220DF10701CA
:1033E80015F028FE03B05DF804FB01220DF107017A
:1033F800984703B05DF804FBE5140000036963B166
:103408001A68074992698A4208D1186D08B117F0FD
:1034180035B9586D08B115F069BB704718461047A3
:103428008D0F0000036973B11A68084952698A420E
:1034380007D1186D08B116F07DBE586D18B114F09B
:10344800F7BE184610474FF0FF307047590E00007E
:10345800036923B31968134A10B58C6882B0944283
:1034680014D1186D48B101220DF1070116F08EFD37
:1034780090B19DF8070002B010BD586D0028F8D033
:1034880001220DF1070114F003FEF1E701220DF10D
:1034980007011846A047EBE74FF0FF30EBE74FF086
:1034A800FF307047990E0000036D13B15869002171
:1034B8007047436D13B1D3E90001704718461946A8
:1034C800704700BF036D13B1D86900217047436D81
:1034D80013B1D3E90401704718461946704700BF75
:1034E800F0B595B000224FF47A74244F1831054690
:1034F80004A88DF80C200097CDE90124CDE912220B
:1035080018F082FB129B002B2DD05C2000261AF0AD
:10351800BFFB019B04464660C36004A9029B1830A8
:1035280040F8083C9DF80C3000F8043C144B40F877
:10353800183C144B40F8103C18F0B8FA124B4FF4F2
:103548007A72A7602B606368A66501336E602E737C
:10355800AA602C6163600D4B04A8009318F0E8FA88
:10356800284615B0F0BD139B002BCED1064A2B730D
:103578002A602B61C5E90134EDE700BF183F002040
:103588003C3F0020983F0020EC3E0020503D0020AA
:10359800836C13B1184616F0CDBDC06C08B114F099
:1035A80047BE4FF0FF307047036D13B1184616F051
:1035B800C1BD406D08B114F03BBE4FF0FF307047FD
:1035C800036D33B11B7813F0700F14BF0120002076
:1035D8007047406D30B190F8313013F0500F14BF80
:1035E80001200020704700BF036D13B1184616F084
:1035F800CDBC406D08B114F04BBD4FF0FF307047A3
:1036080010B586B00446FFF73FFB50BB1E4B1B6846
:10361800002B28DD40F6FE72934227DC07EE903A35
:10362800DFED1A5A9FED1A7AF8EEE77A9FED196ADC
:10363800DFED196A67EEA57AC7EE875A85EE867AB6
:1036480027EE267AB7EEC77A144A102102A88DED24
:10365800007B29F0BFFB02AB114AC8212046FFF7C7
:103668001FFA06B010BD9FED047BEDE79FED047BCC
:10367800EAE700BFAFF30080000000000000000090
:10368800000000C0B6AD3140540F01203333534021
:1036980000F07F45ABAA3A4300007A445C20002042
:1036A80050200020836C00B583B063B101220DF176
:1036B8000701184616F06AFC01280CD19DF807008E
:1036C80003B05DF804FBC06C28B101220DF10701BD
:1036D80014F0DEFCF0E74FF0FF30F1E7036D13B1B3
:1036E800184616F0CBBF406D08B115F0FFB970470A
:1036F800836C13B1184616F0C1BFC06C08B115F041
:10370800F5B970472DE9F0472DED068B88B00546D1
:10371800FFF7BAFA002840F02B82B84AB84E13686F
:10372800B84C0133B848B9491360336823600123A2
:1037380007680B70002F40F32E8240F6FE739F42FD
:1037480000F34C8207EE907ADFEDB15A9FEDB16A33
:10375800F8EEE77ADFEDB06A9FEDB07A67EEA57A0A
:10376800C7EE869AC9EEA68A68EE878AAC4B1E68B1
:10377800002E40F3198240F6FE739E4200F31B822E
:1037880007EE906A9FEDA75ADFEDA25AB3EE047ACE
:10379800F8EEE77A9FEDA46ADFEDA06A67EE857A16
:1037A80087EEA59A89EE068A28EE268AB4EEC78A9D
:1037B800F1EE10FA40F3E5819FED9CAA002102A8E2
:1037C80019F068FADFF8E8A24FF4007102A819F0BE
:1037D800B7FA974902A8DFF89C8219F08DFB954C3F
:1037E8009AF8001002A8DFF8CC92002914BF4146CD
:1037F800214619F081FB904902A819F07DFB8F4BF7
:1038080002A81978002914BF4146214619F074FB13
:103818008B4902A819F070FB092102A819F08AFB4C
:10382800884902A819F068FB874A012305216846E0
:1038380029F0D0FA694602A819F05EFB834902A86C
:1038480019F05AFB824B02A8198889B219F072FB49
:10385800804902A819F050FB7F4B02A8198889B249
:1038680019F068FB7D4902A819F046FB99F8001089
:1038780002A8002914BF4146214619F03DFB7849AA
:1038880002A819F039FB99F8001002A8002914BF02
:103898002146414619F030FB724902A819F02CFB69
:1038A8009AF80030002B00F06A8199F80030002B5C
:1038B80014BF2146414602A819F01EFB6A4902A816
:1038C80019F01AFB694902A819F016FB684B694AF6
:1038D80002A81978574B002914BF1146194619F048
:1038E8000BFB654902A819F007FB644B1B78013BE9
:1038F800DBB2022B00F24181614A52F8231002A880
:1039080019F0FAFA5F4902A819F0F6FA5E4902A816
:1039180019F0F2FA394602A819F00CFB5B4902A823
:1039280019F0EAFAB0EE690A062105A819F054FA66
:1039380005A902A819F0DCFA05A819F0F9F9544903
:1039480002A819F0D9FAB0EE680A052105A819F0FD
:1039580043FA05A902A819F0CBFA05A819F0E8F965
:103968004C4902A819F0C8FA9FED2B0A012105A8B5
:1039780019F032FA05A902A819F0BAFA05A819F03F
:10398800D7F9454902A819F0B7FA9FED210A032192
:1039980005A819F021FA05A902A819F0A9FA05A89D
:1039A80019F0C6F93D4902A819F0A6FA3C4B02A83D
:1039B800198889B219F0BEFA3A4902A819F09CFA96
:1039C800314602A819F0B6FA374902A819F094FA54
:1039D800B0EE490A062105A819F0FEF905A902A8C2
:1039E80019F086FA05A819F0A3F9304902A819F0C8
:1039F80083FAB0EE480A052105A85DE0381F0120CA
:103A0800F82E01204C1F0120481F01206C2F012097
:103A18006666E63F00F07F4500003C4200007A44BD
:103A2800540F012033335340ABAA3A430000FA4401
:103A3800AC220020682C0020B8220020672F01202B
:103A4800C4220020E4220020F4220020FC220020CE
:103A5800422F01200C230020442F0120182300208E
:103A680034230020502300206823002084230020D2
:103A780055F20020B8270020982300206E2F01203F
:103A8800D8030020B0230020B4230020BC2300204A
:103A9800C8230020D8230020E8230020F423002096
:103AA8004A2F012004240020102400202024002074
:103AB800702F01206D2F012019F08EF905A902A899
:103AC80019F016FA05A819F033F9484902A819F0AF
:103AD80013FA9FED470A022105A819F07DF905A9F7
:103AE80002A819F005FA05A819F022F9414902A817
:103AF80019F002FAB0EE4A0A022105A819F06CF989
:103B080005A902A819F0F4F905A819F011F93A491C
:103B180002A819F0F1F99FED390A012105A819F059
:103B28005BF905A902A819F0E3F905A819F000F94D
:103B3800334902A819F0E0F99FED320A012105A8DE
:103B480019F04AF905A902A819F0D2F905A819F03F
:103B5800EFF87D2102A819F0DDF9029B002B42D075
:103B68002846294AC821FEF79BFF02A819F0E0F869
:103B780008B0BDEC068BBDE8F0872449BFE62146B6
:103B880099E6F1EE007AB4EEE78AF1EE10FA16DC67
:103B98009FED1AAA12E61E4BDFED1E8A1E68F0EE94
:103BA800689A002E3FF7E7AD9FED1A8A9FED13AA9A
:103BB800B0EE489A02E69FED189A9FED188AF1EE4A
:103BC800007ADFED176A9FED177A9FED0CAA78EE61
:103BD800677A67EEA67AA7EE87AAEFE5DFED128A85
:103BE800DFED129AC2E5124BBAE700BF3424002079
:103BF800ABAA3A43482400205824002000007A4306
:103C0800702400200000FA4470210020A422002023
:103C1800540F01200000000033335340B66D8D412E
:103C28000000803D00C0DA44063119426666E63F6E
:103C380028EA0020036D13B1184616F0CBBD406D7D
:103C480008B115F0F7B97047836C13B1184616F030
:103C5800C1BDC06C08B115F0EDB9704700B5836CF3
:103C680083B08DF8071043B101220DF10701184602
:103C780016F0B0FD03B05DF804FBC06C0028F9D065
:103C880001220DF1070115F0D5F903B05DF804FB29
:103C98008A79A2F150031B0622D402F26C72F0B5A5
:103CA8004B7985B0046D01330D798E784F78DBB28E
:103CB80009784CB1204601960095CDE9027104219E
:103CC80016F0E2FC05B0F0BD406D0028FAD0019670
:103CD8000095CDE90271042115F07EF805B0F0BD1C
:103CE80000207047036D53B1187810F008000DD00C
:103CF800D8695B69C01A48BF6FF000407047436DD0
:103D0800A3B193F8310010F0080000D1704718698A
:103D180019685A69401A5B6862EB0303B0F1004FF7
:103D280073F10003F2D36FF0004070471846EDE7D7
:103D3800836C53B1187810F008000DD0D8695B690E
:103D4800C01A48BF6FF000407047C36CA3B193F826
:103D5800310010F0080000D17047186919685A69D5
:103D6800401A5B6862EB0303B0F1004F73F1000384
:103D7800F2D36FF0004070471846EDE70369D3B1FE
:103D88000E4810B41C68E46884420FD1186D18B14D
:103D98005DF8044B16F01EBD586D18B15DF8044B64
:103DA80015F048B900205DF8044B704718462346C3
:103DB8005DF8044B18470020704700BFE514000069
:103DC80038B504460C4B806D236018B126F002FE0E
:103DD8000023A365236D04F118054BB1284617F09D
:103DE800A7FE064B2846A36017F0A2FE204638BD62
:103DF800636D002BF2D1F4E73C3F0020503D0020DA
:103E080038B504460E4B806D236018B126F0E2FDEC
:103E18000023A365236D04F118056BB1284617F03C
:103E280087FE084B2846A36017F082FE20465C21D7
:103E380019F032FF204638BD636D002BEED1F0E754
:103E48003C3F0020503D002030B4029C11469C4667
:103E580034B1012C1CD0022C0ED0002030BC70478D
:103E6800056DF5B14FF0FF33934274EB0C04F4D3B6
:103E7800284630BC16F0D2BA026D0AB3D369591875
:103E88004CF10003002BE8D1104630BC16F0C6BA3E
:103E9800026D62B1536959184CF10003002BDCD153
:103EA800F2E7406D0028D8D030BC14F0D7B9406D87
:103EB8000028D2D0D0E900238A184CEB0303F3E79B
:103EC800406D0028C9D0D0E9042330BC8A184CEBD7
:103ED800030314F0C3B900BF08B5392104481BF027
:103EE800DDF9044818F0ECFD034B01221A7008BDF7
:103EF80004200020A8EB0020652F0120C36810B51E
:103F080004461BB1011D032208469847204610BDF0
:103F1800154B012115484FF47A6210B50024197029
:103F2800134B2146047013481C6029F0FBF94FF429
:103F38007A622146104829F0F5F9104A104B1460AE
:103F48004FF6FF721C600F4B0F481A800F49104B39
:103F580004600C701C800F480F49104A104B0480F5
:103F68000C7014701C6010BD702F01206D2F012083
:103F7800781F012080FF00205C0F0120500F0120D6
:103F8800481F01204EF200204C0F0120672F01200E
:103F9800402F0120482F0120642F0120692F012084
:103FA800741F0120144B154A1968136830B423B1E3
:103FB8001368CB1AB3F57A7F0ED3114B0024116026
:103FC8001C801A8892B2272A0BD81A88013292B21A
:103FD80030BC1A80FEF724BF094B1A8892B2272AF0
:103FE800F3D9084D40F2F711074B2C68074A013402
:103FF8002C6030BCFEF754BDF82E0120801F012034
:10400800462F0120601F0120BC2D002070210020B8
:10401800144B154A1968136830B423B11368CB1AC6
:10402800B3F57A7F0ED3114B002411601C801A88D7
:1040380092B2272A0BD81A88013292B230BC1A8061
:10404800FEF7D8BE094B1A8892B2272AF3D9084D31
:1040580040F2F711074B2C68074A01342C6030BC3A
:10406800FEF71EBDF82E0120801F0120462F0120DB
:10407800601F0120BC2D002070210020144B154A20
:104088001968136830B423B11368CB1AB3F57A7F73
:104098000ED3114B002411601C801A8892B2272A73
:1040A8000BD81A88013292B230BC1A80FEF7CEBE05
:1040B800094B1A8892B2272AF3D9084D40F2F71112
:1040C800074B2C68074A01342C6030BCFEF7E8BC6B
:1040D800F82E0120801F0120462F0120601F01209B
:1040E800BC2D002070210020F0B5D0E9346587B0E0
:1040F800044615B16B6801336B60D4F8B400D4F88A
:10410800B03026499B1A02440868C4F8B030C4F895
:10411800B420C4F8C000002B38D184F8A430B368A8
:1041280003B93371606BA0B1049205AA0B6804F15E
:104138002C00009202A9D4F8A820A76B9B1A03941C
:1041480003AA0593E36B029304ABB8473368EBB15A
:10415800B3680022C4F8B420DBB996F9044014F11E
:104168000D0F18D07DB16B68013B6B605BB92B6894
:1041780028469B689847AB68013BAB601BB92B6826
:104188002846DB689847204607B0F0BDB368002B87
:10419800E3D00024E6E70123B360E3E7F82E01202B
:1041A800304B43F6972C304A19681368CB1A63458D
:1041B80000D8704730B52D4C8BB01160024623688B
:1041C8002B4D01332B48236000242B4B29600160C1
:1041D8002A492B481C7018F08FFC2A492A4A2B4B75
:1041E8002B482C4D0C6852682B495B6840686D68F9
:1041F80000910195CDE90212CDE90413CDE906102D
:1042080004AB02AA6946204609F0FCF858B92E21E9
:104218002248234C1BF042F8194818F051FC237827
:10422800C3B10BB030BD204606A909F085F91821A5
:104238001C481BF033F8214608A8194C09F06AF904
:104248000F4908A818F0B0FB0D4818F039FC23787E
:10425800002BE6D1144812F051FA012323700BB059
:1042680030BD00BFF82E01207C1F0120441F012013
:10427800401F01206C1F01206C2F0120DC2D002025
:10428800A8EB0020D0230120AC230120B423012077
:10429800C4230120BC2301205C400020002E002004
:1042A800662F0120302E0020AC1F012030B585B0CC
:1042B8000546FEF7E9FC08B105B030BD04462421E7
:1042C8003D481AF0EBFF3D4818F0FAFB3C4B3D4ADD
:1042D8003D491C603D4B14704FF47A620C702146C6
:1042E8003B481C6029F01EF84FF47A622146394891
:1042F80029F018F8384B3949394A1C6014600C7099
:10430800384A394914600968384A394B11604FF600
:10431800FF7221461A800422364B0DEB02001C80E6
:10432800354B1C80354B1A70354B1C7018F0B2FC9D
:10433800C02101A818F004FD324901A818F0DCFDDD
:10434800314901A818F0D8FD304901A818F0D4FD6A
:104358002F4B01A8198889B218F0ECFD2D4901A846
:1043680018F0CAFD2C4901A818F0C6FD2B4901A870
:1043780018F0C2FD2A4B01A8198889B218F0DAFD95
:10438800284901A818F0B8FD274B01A8198889B257
:1043980018F0D0FD7D2101A818F0BCFD019B4BB1A0
:1043A800224AC8212846FEF77BFB01A818F0C0FC6A
:1043B80005B030BD1E4BF3E7F42B0020A8EB00201E
:1043C800781F01206D2F0120702F0120581F012018
:1043D80080FF00205C0F0120481F0120672F01206B
:1043E800500F01204C0F0120F82E0120741F0120CE
:1043F8004EF20020482F0120402F0120642F012079
:10440800692F01201C2C0020402C00200C230020A8
:10441800442F0120502C0020702C0020902C0020CC
:10442800422F0120F42300204A2F01207021002070
:1044380028EA002030B585B00546FEF725FC08B10E
:1044480005B030BD04462C213D481AF027FF3D48F1
:1044580018F036FB3C4B3D4A3D491C603D4B1470FF
:104468004FF47A620C7021463B481C6028F05AFFD2
:104478004FF47A622146394828F054FF384B3949BD
:1044880001A8394A1C6014600C70384A3849146015
:104498000968384A384B11604FF6FF7221461A8076
:1044A8000322364B1C80364B1C80364B1A70364B19
:1044B8001C7018F0EFFBE02101A818F041FC33490B
:1044C80001A818F019FD324901A818F015FD314965
:1044D80001A818F011FD304B01A8198889B218F00D
:1044E80029FD2E4901A818F007FD2D4901A818F04B
:1044F80003FD2C4901A818F0FFFC2B4B01A81988D3
:1045080089B218F017FD294901A818F0F5FC284BC5
:1045180001A8198889B218F00DFD7D2101A818F0AD
:10452800F9FC019B4BB1234AC8212846FEF7B8FA8B
:1045380001A818F0FDFB05B030BD1F4BF3E700BF25
:104548004C2E0020A8EB0020781F01206D2F0120A1
:10455800702F0120581F012080FF00205C0F0120D0
:10456800481F0120672F0120500F01204C0F012008
:10457800F82E0120741F01204EF20020482F012040
:10458800402F0120642F0120692F01207C2E00205C
:10459800402C00200C230020442F0120502C002008
:1045A800702C0020902C0020422F0120F4230020A2
:1045B8004A2F01207021002028EA002070B5244BE2
:1045C800044605690360002D32D06E68013E6E60B6
:1045D80076BB2B681F4ADB6A93422FD1A86D10B1B6
:1045E80026F0F8F9AE652B6D23B305F1180017F026
:1045F8009FFA2569E5B12B68174A5B68934224D175
:10460800164BA86D2B6018B126F0E4F90023AB65B2
:104618002B6D05F11806A3B1304617F089FA104B37
:104628003046AB6017F084FA5C21284619F034FB59
:10463800204670BD6B6D002BD7D1DAE72846984726
:10464800D7E76B6D002BE7D1E9E728469847EFE7F6
:10465800EC3E002001040000B11600003C3F0020A1
:10466800503D002070B5264B044605690360002DB7
:1046780032D06E68013E6E6076BB2B68214ADB6AD9
:10468800934233D1A86D10B126F0A4F9AE652B6D15
:1046980043B305F1180017F04BFA2569E5B12B680B
:1046A800194A5B68934228D1184BA86D2B6018B142
:1046B80026F090F90023AB652B6D05F11806C3B100
:1046C800304617F035FA124B3046AB6017F030FA27
:1046D8005C21284619F0E0FA2046142119F0DCFA8A
:1046E800204670BD6B6D002BD3D1D6E7284698477E
:1046F800D3E76B6D002BE3D1E5E728469847EBE756
:10470800EC3E002001040000B11600003C3F0020F0
:10471800503D00202DE9F04F9FB09846289F9DF806
:10472800A460002A00F09981A84D2869002800F0AB
:1047380091810368A64C1A6BA24240F05382026D25
:10474800002A00F07482DB68A2498B4240F0B682EE
:1047580013463A464146184616F03CF8002E00F03B
:1047680079812869002800F0758103681B6BA342D2
:1047780040F0D382036D002B00F0CA822E693368A3
:10478800DFF88082DB6A434540F09582B06D18B14E
:1047980026F020F90023B365336D002B00F0FF826B
:1047A80006F1180017F0C4F92F697E68013E7E6093
:1047B800002E33D13B68DB6A434540F00483B86D73
:1047C80010B126F007F9BE653B6D002B00F0F182B1
:1047D80007F1180017F0ACF92E69FEB133687E4A6C
:1047E8005B68934240F0FA827C4BB06D336018B13D
:1047F80026F0F0F80023B365336D06F11807002B97
:1048080000F0E782384617F093F9754B3846B360E5
:1048180017F08EF95C21304619F03EFA00232B611F
:10482800342170481AF03AFD00256F4818F048F90D
:1048380004A903A8CDE9035512F0F2FD002800F001
:1048480075822B46694A6A490AA817F08BFA1C9B9D
:10485800002B00F08F825C20002719F019FA5F4BBB
:104868000EAD0646C0E900370B9B2946183040F8C4
:104878000C3C604B40F8103C0C9B40F8083C9DF801
:10488800343000F8043C17F011F95B4BB765B3609E
:104898004FF47A730697079373688DF82070013385
:1048A800564F099605977360DFF834912846CDF87E
:1048B800289017F03DF90998002800F0478203680E
:1048C8001B6BA34240F03E82036D002B00F06C820C
:1048D800454905A8DDE9032312F0F4FB099C002CE7
:1048E80050D02368DFF81C81DB6A434540F06E82B4
:1048F800A06D18B126F06EF80023A365236D002B78
:1049080000F05C8204F1180017F012F9099D6C6838
:10491800013C6C60002C33D12B68DB6A434540F0C6
:104928006D82A86D10B126F055F8AC652B6D002B83
:1049380000F05C8205F1180017F0FAF8099CFCB148
:104948002368254A5B68934240F06882234BA06D38
:10495800236018B126F03EF80023A365236D04F107
:104968001805002B00F05282284617F0E1F8284677
:10497800C4F8089017F0DCF85C21204619F08CF98F
:1049880000230993DDE9030112F07AFD25211C4873
:104998001AF084FC144818F093F8099C0597002C29
:1049A80058D06568013D6560002D53D12368154ACC
:1049B800DB6A934240F01F82A06D10B126F00AF81E
:1049C800A565236D002B00F00C821DE0B8EB0020DC
:1049D800F5010000E5140000B11600003C3F00207E
:1049E800503D0020082D0020A8EB0020383B002077
:1049F800ACFA0020983F0020183F0020EC3E002031
:104A0800942D00200104000004F1180017F090F81C
:104A1800099CFCB12368AE4A5B68934240F0FB8175
:104A2800AC4BA06D236018B125F0D4FF0023A3651B
:104A3800236D04F11805002B00F0E381284617F0D8
:104A480077F82846C4F8089017F072F85C212046D9
:104A580019F022F91FB0BDE8F08F9F4DFE211446D2
:104A6800284617F011FE002800F0DE80D5F88434BF
:104A7800002B00F0988019460A9423460AAC974AFE
:104A8800204615F02FFA002840F09A8044F20223BD
:104A98002046924A924917F065F91C9B002B00F0BA
:104AA800D8805C204FF0000919F0F2F80B9B0EAD8E
:104AB8000446C36018300C9B294640F8149C40F803
:104AC800083C9DF8343000F8043C824B40F8183C10
:104AD800844B40F8103C16F0E9FF63682846C4F898
:104AE80058900133DFF824927F4D63607F4BCDF8F7
:104AF8002890A36017F01CF82B69002B00F0848025
:104B08005A68013A5A600092002A3FD119687848D9
:104B1800C96A814240F02B81986D28B1019325F034
:104B280059FFDDE900239A651A6D002A00F0BB8061
:104B380003F1180016F0FCFFD5F810A0BAF1000F29
:104B480024D0DAF80030624A5B68934240F0B080C3
:104B5800604BDAF85800CAF8003020B125F03AFF67
:104B68000023CAF85830DAF850300AF1180B002B35
:104B780000F00F81584616F0DBFF5846CAF8089037
:104B880016F0D6FF50465C2119F086F82C61002CEF
:104B98003BD1242157481AF081FB57481FB0BDE884
:104BA800F04F17F08DBFD5F88814002962D00AACF1
:104BB8004A4A1693204613F00FFE00283FF466AFCA
:104BC800D5F8841400295BD00023444A20460A9370
:104BD800012315F087F900283FF458AF204616F056
:104BE80087FA53E7904700283FF4B8AD28690028B2
:104BF8003FF430AF0368414ADB6893425ED1036DEE
:104C0800002B7FF4A6AD18E02C6123683C4A1B6B8F
:104C1800934257D1236D7BB31D213A481AF03EFBCE
:104C2800354817F04DFF80E522213748B3E7426D3C
:104C380052B1DB68314A934240D1406D20B13A46C7
:104C4800414614F0F7F989E5002E3FF403AF2869CF
:104C58008BE51D9C002C7FF424AFDFF8B0900EA8E4
:104C6800214DCDF8289016F063FF2B69002B7FF4B7
:104C780047AF8EE70AAC09E7636D002BCCD188E714
:104C8800D5F88834002B3FF401AF16912046194619
:104C9800124A012313F0A0FD00283FF4F7AE204686
:104CA80013F0FEFDF2E65A6D002A7FF441AF43E7A8
:104CB800504698476AE73046984775E53A46414670
:104CC80098474BE52046984700283FF462AFA3E792
:104CD800B11600003C3F0020A8FA0020383B002015
:104CE800ACFA0020983F0020B8EB0020183F0020C5
:104CF80001040000E02C0020A8EB0020E5140000CF
:104D0800F5010000C02C00209C2C0020503D002004
:104D1800436D002B7FF432AD9CE6984700283FF4A2
:104D280099AE2E69002E3FF47BAD28E520213D4841
:104D38001AF0B4FA3C4817F0C3FEDDE9030112F09B
:104D48009FFB87E6984700287FF4C2AD2C2137489F
:104D58001AF0A4FA344817F0B3FEDDE9030112F0A3
:104D68008FFB099C0597002C7FF41BAE72E6184652
:104D78008847E1E61D9B002B7FF46DAD4FF47A72F6
:104D88002B4F0EAD8DF8203005970993CDE90632EB
:104D98008AE5DAF85430002B7FF4ECAEEDE6736D5B
:104DA800002B7FF4FDACFFE4436D002B7FF490AD46
:104DB800CCE77B6D002B7FF40BAD0DE5636D002B0D
:104DC8007FF4A0ADA2E53846984705E52046984708
:104DD8009CE5736D002B7FF415AD16E530469847BA
:104DE8001CE5636D002B7FF40FAE11E66B6D002B95
:104DF8007FF4A0ADA2E52046984709E628469847E3
:104E08009CE5636D002B7FF419AE1AE6636D002BE9
:104E18007FF4AAADABE5204698471BE620469847A5
:104E2800AEE500BF402D0020A8EB0020642D002037
:104E3800EC3E002030B482B00C4602AB03E9060019
:104E4800C37C002B30D072B6C37CDA0708D54FF08C
:104E5800E0214569D1F880212A408262C1F8802189
:104E68009D0708D54FF0E0218569D1F884212A40B3
:104E7800C262C1F88421590708D54FF0E021C569FD
:104E8800D1F888212A400263C1F888211A0708D579
:104E98004FF0E021056AD1F88C212A404263C1F81D
:104EA8008C21DB062FD462B683689C4235D0224B16
:104EB80084609B69214AC3F30111C3F3826352F8EA
:104EC80021100133B1FBF3F2CCB1944227D8B2FBE5
:104ED800F4F3B2FBF3F294422CD3B3F5817F20D3E1
:104EE800174CC460036803220020019918615A62B4
:104EF80001221C6419661A6102B030BC70479942DD
:104F0800EFD3531CE9E74FF0E022416AD2F8903121
:104F18000B408363C2F89031C5E7C468E2E7002418
:104F2800DFE7022BFBD9023B5A08140244EA024489
:104F38001C43D6E71A46E4E700C00F40FC400020B7
:104F4800FF7F7F00F8B5274A0B46274D06461F0A04
:104F58002846DCB206CAFFF76DFF0021092018F0C9
:104F680081FC2B685E66DA6D12F4F81FFBD05A6F6D
:104F78005F66DA6D12F4F81FFBD05E6F5C66DA6D5F
:104F880012F4F81FFBD0012109205C6F18F06AFCAD
:104F9800EB7CE4B213B3DF0704D5A96A4FF0E02233
:104FA800C2F80011980704D5E96A4FF0E022C2F868
:104FB8000411590704D5296B4FF0E022C2F80811F3
:104FC8001A0704D5696B4FF0E022C2F80C11DB0612
:104FD80004D5AA6B4FF0E023C3F8102144EA062059
:104FE80080B2F8BD440F012058EB00205D4B5E4AAB
:104FF800196813682DE9F043054685B02BB113688D
:10500800CB1AB3F57A7FC0F09680584B0020116018
:1050180018801A8892B2272A00F2938000245449F3
:105028001A8850200C7053490132DFF8B4810C7093
:1050380092B251491A800C602146FFF783FF40F075
:10504800080607465220B6B2DFF898913146FFF7B6
:1050580079FF4A4B0122214649481A704FF47A6277
:10506800484BA8F800601C7089F8004028F05AF9ED
:105078004FF47A622146444828F054F943494FF6E0
:10508800FF703A460C60334641490C6041490C6058
:10509800414989F800400880404941480C8041490D
:1050A8000C80414917F028FD214601A817F0F2FDB0
:1050B800A02101A817F044FE3C4901A817F01CFFE5
:1050C8003B4901A817F018FF3A4901A817F014FF47
:1050D800B8F8001001A889B217F02CFF364901A8CA
:1050E80017F00AFF354901A817F006FF344901A84F
:1050F80017F002FF334B01A8198889B217F01AFF7D
:10510800314901A817F0F8FE304B01A8198889B277
:1051180017F010FF7D2101A817F0FCFE019BF3B1E9
:105128002B4AC8212846FDF7BBFC01A817F000FE52
:1051380005B0BDE8F0830D4B1A8892B2272A7FF696
:105148006DAF244E40F2F711234B28463468204AAD
:105158000134346005B0BDE8F043FDF7A1BC1F4B36
:10516800DEE700BFF82E0120801F0120462F012016
:10517800642F0120692F0120741F01206D2F012049
:1051880080FF0020702F01205C0F0120500F0120AC
:105198004C0F0120481F01204EF20020482F01200B
:1051A800A8EB0020402F012048270020842700205A
:1051B800B82700200C230020A0270020C0270020AB
:1051C800902C0020422F0120F42300204A2F012098
:1051D80070210020601F0120BC2D002028EA00203B
:1051E800442F0120672F0120184B1A78012A70B527
:1051F80000D128B300210420FFF7A4FE00210446B3
:105208000846FFF79FFE002106464820FFF79AFE52
:10521800002105465020FFF795FEE2430C49C4F3F0
:105228000B04C2F3C0320B4B0A700B4A0B491680B1
:105238000B4A15800B4A0880204612681A6070BD18
:10524800034A04461070204670BD00BF6D2F012030
:10525800672F0120401F0120422F0120442F0120E9
:105268004A2F0120F82E01200246012030B587B0D0
:105278000592FFF7B9FF2D490346059A0888984219
:105288002B4829D00124092B0B80048017D82948E2
:1052980029490360097801F0FF04002932D0012070
:1052A800002405462549098889B20095CDE90110F1
:1052B8002349244817F020FC204607B030BD1D487C
:1052C8001D490360097801F0FF0409B31B49012552
:1052D8000020098889B2E8E74FF6FF740188A142E7
:1052E80021D00131092B89B20180D0D90929E6D909
:1052F800104811490360097801F0FF0461B90120E1
:105308002546CFE70D4925460120098889B2CCE713
:10531800002001240546C5E708490125002409881D
:10532800284689B2C1E7092BE2D8B0E74EF200203F
:10533800482F0120481F0120672F01204A2F0120F4
:10534800C8290020A8EB0020002170B5084682B0CB
:10535800FFF7F8FD002106464820FFF7F3FD00217E
:1053680004465020FFF7EEFD484B494905461E808C
:1053780032460C80234647490090088046494748F2
:1053880017F0BAFB6CB3220678D4E3056ED4A005F7
:1053980064D461055AD4220550D4E30446D405F0F8
:1053A8000102C5F340033E493C48CDE90032C5F34C
:1053B8008003C5F3C00217F09FFB812E02D10120A4
:1053C80002B070BD334626408122364933482E400C
:1053D80017F092FB4FF6FF739E4221D1002002B0D6
:1053E80070BD2121304819F059FF2C4817F068FB8F
:1053F80005F00102C5F3400329492848CDE90032E8
:10540800C5F38003C5F3C00217F076FB812ED6D012
:10541800334681222349214817F06EFB2E43DDD005
:10542800254314BF0120002002B070BD22211F486F
:1054380019F034FF194817F043FBB0E728211C483E
:1054480019F02CFF154817F03BFBA6E72321194854
:1054580019F024FF114817F033FB9CE72521164863
:1054680019F01CFF0D4817F02BFB92E73121134868
:1054780019F014FF094817F023FB88E71F2110488B
:1054880019F00CFF054817F01BFB7EE7422F01209F
:105498004A2F0120442F0120B0240020A8EB00202F
:1054A8001C2500203C260020F82400201826002077
:1054B800EC250020C8250020A02500206C25002010
:1054C8004C25002010B5044628F042FD0146204630
:1054D8000A4C19F0E3FE0A4817F0F2FAFFF734FF16
:1054E800084A002320701168074A084811600849D3
:1054F800084A03700B70136010BD00BF702F0120A5
:10550800A8EB0020F82E0120781F0120642F01202D
:10551800692F0120741F012038B50023044641F289
:105528008832C0E90133C0E90333C0E90533C0E973
:105538000733C0E90933C0E90B33C0E90D33C0E9CB
:105548000F33C0E91133C0E91333C0E91533C0E99B
:105558001733C0E91933C0E91B33C0E91D33C0E96B
:105568001F33C0E92133C0E92333C0E925334FF4A1
:10557800807084F8A430C4F8A830A4F8AC00C4F84B
:10558800C820A4F8CC3084F8CE302160C4E9273391
:10559800C4E92C33C4E92E33C4E93033C4E93433C5
:1055A800C4E93633E1B1244B084640211B68C4F8EE
:1055B800C03003F023FB2146206803F059FB1F4944
:1055C800206803F065FB1E49206803F089FB1D492C
:1055D800206803F0ADFB01221B49206803F0E4FBBF
:1055E8001C2018F055FB012200231849D4F8D45088
:1055F8000160C46003744361C0E9012200F10C0238
:10560800C4E934208DB16B68013B6B606BB92B68C2
:1056180028469B689847AB68013BAB601BB92B6871
:105628002846DB689847D4F8D020094920460B68FB
:1056380001330B60D36038BDF82E0120E133000040
:105648009919000029320000E9340000E8400020E0
:10565800580F0120C369F0B50E4683B0002B4CD01B
:10566800037B0446002B3BD14B8B23F040039BB2BA
:105678002949E02073831AF021F80546002838D01C
:105688003146FFF749FFD5E9347616B1736801331F
:105698007360626AE36901950092002B39D0236A2E
:1056A80001AA04F1140069469847BB68E3B997F961
:1056B800044014F10D0F19D07EB17368013B73607B
:1056C8005BB9336830469B689847B368013BB36061
:1056D8001BB933683046DB689847204603B0F0BDF5
:1056E8004B8B43F04003C3E70024E5E70123BB608D
:1056F800E2E7304604F038F928B9304604F034F9C6
:1057080004460028E9D030466FF00C0403F050FF3F
:10571800E3E719F0F9FF00BFF83B002011B10AB91F
:10572800FFF798BF0020704770B50446006820B1A5
:105738001AB111B1057D042D02D00025284670BD8F
:10574800B0F86450002DF8D0954228BF1546AAB28B
:1057580005F0F8FF06460028EFD1D4F8B8302068E5
:105768002B44C4F8B83006F08FFD20B13546C4F894
:10577800B860284670BDD4F8B810D4F8B030074ADD
:105788000B4401211268C4F8B800284684F8A41014
:10579800C4F8B030C4F8A82070BD00BFF82E0120AE
:1057A80010B50446006884B048B30021019003F0A6
:1057B8005FFA0021019803F093FA0021019803F0A1
:1057C80067FA0021019803F0B3FA00220198114604
:1057D80003F0EAFA206804F0C7F890B9D4F8D0309A
:1057E8009A68CAB10022236A226043B103AA02A9B7
:1057F800D4E90930CDE9020404F11800984704B04F
:1058080010BD20680028EDD003F0D2FED4F8D030C7
:105818009A68002AE6D1F3221A71E3E738B50446FC
:1058280000680D4618B1B4F8BC1003F085F91DB92D
:10583800012384F8AC3038BD2046BDE83840FFF776
:10584800AFBF00BF38B5036804460BB1FFF7A8FF28
:10585800D4F8D0301A680AB100221A60D4F8D450AB
:1058680025B16B68013B6B60002B3AD0D4F89830B7
:1058780023B104F19001032208469847D4F88430F4
:1058880023B104F17C01032208469847236F23B112
:1058980004F16801032208469847E36D23B104F137
:1058A8005401032208469847A36C23B104F1400130
:1058B800032208469847636B23B104F12C010322A5
:1058C80008469847236A23B104F1180103220846C1
:1058D8009847E3681BB1211D0322084698472046D4
:1058E80038BD2B6828469B689847AB68013BAB607E
:1058F800002BBBD12B682846DB689847B6E700BF6A
:1059080030B50446006887B00D46C8B10021019043
:1059180003F0AEF90021019803F0E2F900210198A3
:1059280003F0B6F90021019803F002FA0022019869
:10593800114603F039FA206804F016F800232360B2
:10594800A36C63B1226D0DF10F038DF80F5004A9FC
:1059580004F14000E56CCDE9042405AAA847236AB0
:1059680043B105AA04A9D4E90930CDE9040404F136
:105978001800984707B030BD70B5D0E93454E4B189
:10598800636801336360AB6813B902232971AB60A4
:10599800FFF7B6FF6368013B63606BB92368204675
:1059A8009B689847A368013BA3602BB923682046EE
:1059B800DB68BDE87040184770BDAB6813B90223B7
:1059C8002971AB60BDE87040FFF79ABF2DE9F04F31
:1059D80087B005468B4690469DF94060002A64D002
:1059E800002E62D11C46002B00F094804C4B1B68A3
:1059F800C0F8C0300B689A68002A54D01E684FF06F
:105A080001094FF0000AC6B12B6F266885F8AD90E2
:105A1800C4F800A0DBB1AB6F04AA03A905F16800C4
:105A2800039305ABCDE904546C6FA04766B1DBF86E
:105A3800003034461E68002EE6D1204624680660F1
:105A480002F00EFB002CF8D107B0BDE8F08FEB6D2B
:105A580023B3637B02A905F1540085F8CE306B6E41
:105A68006268029363890395CDE9042305AB03AA11
:105A7800009304AB2F6EB847DBF800301B681BB9E6
:105A8800204602F0EDFAD1E795F8AD3033B96289D6
:105A9800D5F8BC301344C5F8BC30F1E761894046FD
:105AA80003F04AF8ECE71A71A8E716F10D0F29D0B0
:105AB800DBF800309A6812B904221E719A60C5F8A2
:105AC8000080B8F1000F14D00021404603F0D0F850
:105AD8000021404603F004F90021404603F0D8F8BD
:105AE8000021404603F024F900224046114603F005
:105AF8005BF90023314628462B6007B0BDE8F04F1C
:105B0800FFF7FEBE40F24333064A0749074816F03E
:105B1800F3FFCDE707B0BDE8F04FFFF741BE00BF88
:105B2800F82E0120982F0020E42F0020A8EB002059
:105B380030B51D4685B01346D0F8D440D0F8D020F3
:105B48000394029214B16268013262600A460095B9
:105B580002A9FFF73BFF029B9A68E2B993F9045048
:105B680015F10D0F14D0039C7CB16368013B636091
:105B78005BB9236820469B689847A368013BA360EC
:105B88001BB923682046DB689847284605B030BD16
:105B980001229A60E7E70025E5E700BF0B689A68ED
:105BA80002B91A7190F8AC30002B39D1214A90F81B
:105BB800A410126830B585B0C1B1D0F8C810A9B129
:105BC800D0F8A840141BA14210D8D0F8842080F83F
:105BD800A4304AB1029003AB01A90394D0E9225240
:105BE8007C30019202AAA84705B030BDD0F8C43075
:105BF80043B1D0F8C0404FF47A71121B01FB03F394
:105C08009A4212D2D0F89830002BEDD003AA02A9FC
:105C1800D0E92734CDE902409030984705B030BD2F
:105C2800002380F8AC30FFF7BBBD05B0BDE83040BD
:105C3800FFF7B6BDF82E012030B50A4683B0D0E98B
:105C48003413CDE9001313B159680131596069461D
:105C5800FFF7A4FF009B9A68E2B993F9045015F185
:105C68000D0F14D0019C7CB16368013B63605BB984
:105C7800236820469B689847A368013BA3601BB92B
:105C880023682046DB689847284603B030BD0122C8
:105C98009A60E7E70025E5E7C0F8C410704700BF41
:105CA80090F8A430026883F00100002A0CBF00209D
:105CB80000F0010000B97047137D042B01D00020CB
:105CC8007047B2F86400003818BF0120704700BF61
:105CD8002DE9F04186B00023D1F80880044602ADD2
:105CE800029317460593C5E90133B8F1000F24D094
:105CF8000E4602222846C047D6E9028295E80300EC
:105D080004F118036E4686E8030093E8030085E86B
:105D1800030096E8030083E80300236A616AC4F875
:105D280020800493626205911BB10322294628460C
:105D38009847A76206B0BDE8F0814246DEE700BF9B
:105D48002DE9F04186B00023D1F80880044602AD61
:105D5800029317460593C5E90133B8F1000F24D023
:105D68000E4602222846C047D6E9028295E803007B
:105D780004F12C036E4686E8030093E8030085E8E7
:105D8800030096E8030083E80300636BA16BC4F883
:105D980034800493A26305911BB103222946284647
:105DA8009847E76306B0BDE8F0814246DEE700BFEA
:105DB8002DE9F04186B00023D1F80880044602ADF1
:105DC800029317460593C5E90133B8F1000F24D0B3
:105DD8000E4602222846C047D6E9028295E803000B
:105DE80004F140036E4686E8030093E8030085E863
:105DF800030096E8030083E80300A36CE16CC4F891
:105E080048800493E26405911BB103222946284681
:105E18009847276506B0BDE8F0814246DEE700BF37
:105E28002DE9F04186B00023D1F80880044602AD80
:105E3800029317460593C5E90133B8F1000F24D042
:105E48000E4602222846C047D6E9028295E803009A
:105E580004F154036E4686E8030093E8030085E8DE
:105E6800030096E8030083E80300E36D216EC4F89D
:105E78005C800493226605911BB1032229462846BB
:105E88009847676606B0BDE8F0814246DEE700BF86
:105E98002DE9F04186B00023D1F80880044602AD10
:105EA800029317460593C5E90133B8F1000F28D0CE
:105EB8000E4602222846C047D6E9028295E803002A
:105EC80004F17C036E4686E8030093E8030085E846
:105ED800030096E8030083E80300D4F88430D4F87C
:105EE8008810C4F884800493C4F8882005911BB1F5
:105EF8000322294628469847C4F88C7006B0BDE8A6
:105F0800F0814246DAE700BF2DE9F04186B0002370
:105F1800D1F80880044602AD029317460593C5E9F7
:105F28000133B8F1000F28D00E4602222846C04798
:105F3800D6E9028295E8030004F190036E4686E8EC
:105F4800030093E8030085E8030096E8030083E86C
:105F58000300D4F89830D4F89C10C4F898800493BF
:105F6800C4F89C2005911BB103222946284698476E
:105F7800C4F8A07006B0BDE8F0814246DAE700BF79
:105F8800006818B1037D042B01D000207047B0F8D9
:105F9800640070470022018010B4064C0273C0E907
:105FA8000142C0E904225DF8044BC0E90622C0E9B9
:105FB800082270475C4000202DE9F04186B000239C
:105FC800D1F80880044602AD029317460593C5E947
:105FD8000133B8F1000F24D00E4602222846C047EC
:105FE800D6E9028295E8030004F114036E4686E8B8
:105FF800030093E8030085E8030096E8030083E8BC
:106008000300E369216AC4F81C80049322620591A5
:106018001BB10322294628469847676206B0BDE8A7
:10602800F0814246DEE700BF036903B1704730B52F
:1060380083B0044603F0B6FB0546C0B14021206991
:1060480002F0DCFDA368228801A92846019302F02A
:106058003DFC70B9FF21284602F01CFD48B12146DD
:10606800206102F005FE0549206902F089FE03B0AF
:1060780030BD284603F078FCF9E700BFCD2F0000BB
:1060880010B50446006960B1002102F0F1FD2069F5
:10609800002102F075FE206903F066FC10B90023A8
:1060A800236110BD206903F083FA00232361F8E718
:1060B80010B50446FFF7E4FFE36923B104F11401C6
:1060C800032208469847204610BD00BF0173704759
:1060D8002DE9F0410C2094B017F09EF900212620FC
:1060E8009E4D17F0FBFBFCF79FFD9D4A9D4B1F2122
:1060F80012689D481A6019F0D1F89C4816F0E0FC27
:1061080029219B4819F0CAF8984816F0D9FC9949F2
:10611800994A9A4B9A480C6852689A495B68406851
:106128006D6802910395CDE90412CDE90613CDE916
:10613800081006AB04AA02A9204607F063F9002854
:1061480040F0FD804421904819F0A8F8874816F0DF
:10615800B7FC1E218D4819F0A1F8844816F0B0FC50
:1061680041F28831204607F055F9002840F0DF80D9
:106178004021874819F092F87C4816F0A1FC08A93C
:10618800204607F0D9F921460AA807F0C3F91A21D1
:10619800804819F083F875490AA816F005FC734879
:1061A80016F08EFC00207C497C4B7D4ACDE910100E
:1061B80010A97C48CDE9123211F07EFA129B1BB16E
:1061C80010A903220846984717217748774D19F0F8
:1061D80065F8664816F074FC2B78002B61D1744F73
:1061E8003B6813F0010300F08082724C0CAE7249D8
:1061F800304616F04FFD714910A816F04BFD1820D7
:1062080017F046FD8046314616F062FD10A908F1E8
:106218000C0016F05DFD082017F03AFD0023C0F8C9
:10622800008043602368002B00F098821A465B6860
:10623800002BFBD1506010A816F07AFD304616F0FE
:1062480077FD3B6813F0010300F06A825C49304631
:1062580016F020FD5B4910A816F01CFD182017F059
:1062680017FD0746314616F033FD10A907F10C005B
:1062780016F02EFD082017F00BFD00230760436081
:106288002368002B00F068821A465B68002BFBD15C
:10629800506010A816F04CFD304616F049FD012359
:1062A8002B70494F3B78002B00F0A080474C237897
:1062B800002B4CD02221464818F0F0FF00230A2278
:1062C8009DF82C10294816F025FC0121414818F0AA
:1062D800E5FF00230A229DF82D10244816F01AFC29
:1062E80001213C4818F0DAFF00230A229DF82E10FD
:1062F8001E4816F00FFC0121364818F0CFFF002386
:106308000A229DF82F10194816F004FC0121324882
:1063180018F0C4FF154816F0D3FB20212F4818F0B9
:10632800BDFF124816F0CCFB14B0BDE8F081142173
:106338002B4818F0B3FF0D4816F0C2FB1FE72221C7
:10634800284818F0ABFF094816F0BAFB01E72648C1
:1063580010F0D4F901232370ACE700BFBC2301205F
:10636800F82E0120401F0120F4030020A8EB002094
:1063780014040020D0230120AC230120B4230120E1
:10638800C42301205C40002040040020AC0400200D
:10639800CC0400202805002089170000090B000004
:1063A80009020000E0F90020440500206F2F0120B9
:1063B8007CFF002064240120802600208C260020F9
:1063C80094260020A42600206B2F0120662F012090
:1063D8001C0600200C0700205C0500204006002059
:1063E8001005002088040020AC1F0120964A974D14
:1063F800974C98499848CDE9102310AB0122CDE974
:10640800124510F01DFB129B1BB110A90322084670
:1064180098470023012291491193914B8E4810937C
:1064280010ABCDE9124510F00BFB129B1BB110A964
:1064380003220846984700238A4E01228A4911936D
:1064480010AB85481096CDE9124510F0F9FA129B69
:106458001BB110A9032208469847002210AB8349B4
:10646800119201227C481096CDE9124510F0E8FA05
:10647800129B1BB110A9032208469847002301224A
:106488007B4911937B4B7448109310ABCDE91245AF
:1064980010F0D6FA129B1BB110A9032208469847A0
:1064A8000023012274491193744B6B48109310AB6D
:1064B800CDE9124510F0C4FA129B1BB110A90322B2
:1064C80008469847002301226D4911936D4B624895
:1064D800109310ABCDE9124510F0B2FA129B1BB124
:1064E80010A90322084698470023022266491193FF
:1064F800664B5948109310ABCDE9124510F0A0FA3D
:10650800129B1BB110A903220846984700230222B8
:106518005F4911935F4B5048109310ABCDE912457A
:1065280010F08EFA129B1BB110A903220846984757
:106538000023022258491193584B4748109310AB37
:10654800CDE9124510F07CFA129B1BB110A9032269
:10655800084698470023022251491193514B3E485F
:10656800109310ABCDE9124510F06AFA129B1BB1DB
:1065780010A9032208469847002302224A4911938A
:106588004A4B3548109310ABCDE9124510F058FA34
:10659800129B1BB110A90322084698470023022228
:1065A80043491193434B2C48109310ABCDE9124546
:1065B80010F046FA129B1BB110A90322084698470F
:1065C800002301223C4911933C4B2348109310AB04
:1065D800CDE9124510F034FA129B1BB110A9032221
:1065E8000846984710AB0CAE0222354900930023A9
:1065F80019480C9311937360324B0F93324B0E93DF
:10660800324B1093324B1393324B1293334610F0A4
:10661800F3F8129B1BB110A90322084698470E9B5A
:106628001BB10322314630469847002310A90A4877
:106638001395CDE91134284B109310F0D3FA129B1F
:10664800002B4FD04AE000BF2D1900000D020000BA
:10665800E90A00005C050020AC1F0120600500204D
:1066680055180000C11800006C05002078050020AE
:1066780080050020290B00008C050020B10E0000C9
:1066880098050020B50F0000A40500209D280000F3
:10669800B4050020E51C0000CC0500205D1B0000AF
:1066A800D80500206D060000E40500202106000042
:1066B800F0050020D5050000FC0500202904000095
:1066C80008060020D1070000A1070000C51F000030
:1066D80015020000C90A0000A505000010A9032240
:1066E8000846984701233B70E0E51D4C1D4A1E49AA
:1066F800139222612246636042F8043B1291536070
:106708000322E16010A90846CDE91033FCF7FCFB31
:106718000123164A204616493B6018F0C9FF65E573
:10672800104A10A9DFF84C801392084622610E4ADD
:1067380063602360C8F804301292E2600322CDE956
:106748001033FCF7E1FB0123A8F10400074A0849CC
:106758003B6018F0ADFF79E520609AE520606AE5B6
:10676800642401207D070000B9070000FCEB00202D
:10677800AD170000682401202DE9F04F8A4A97B030
:106788008A4C8B49266813680D7801331360002DF5
:1067980000F0CA810027012D0F7000F0AE83022D92
:1067A80000F0D083032DDFF8889200F04C82DFF8E8
:1067B800848299F8003022687BB17E4D29688A422C
:1067C8000BD3013BDFF870A2032B00F27382DFE8E2
:1067D80013F0D702C90279026602774F3B7863B992
:1067E80098F80030002B40F05981744B41F2873201
:1067F8001B68F31A934200F2E382714B1A68B242A3
:1068080040F0518198F800A0BAF1000F40F0828161
:106818006C4C2378002B00F0AB806B4B1A6832B1BC
:106828001B6840F6B732F31A934200F2C58298F813
:106838000030002B00F09C80644A1368F31AB3F50B
:10684800FA7F6CD3624B16601A68002A40F33283D1
:1068580040F6FE739A4200F3AA8207EE902ADFED13
:106868005D5A9FED5D6AF8EEE77ADFED5C6A9FEDB1
:106878005C7A67EEA57A87EE864AC4EE267AB7EE8A
:10688800C44A67EE877AB7EEE73A564B1B68002B87
:1068980040F32C8340F6FE718B4200F3108307EE21
:1068A800903A9FED516A9FED4C5AB3EE047AF8EE98
:1068B800E77ADFED4E5ADFED4A6A67EE867A87EEB1
:1068C800856AC6EE257A67EEA67AF4EEC77AF1EE07
:1068D80010FA40F3E182B7EEE75AB7EEC66A9FEDC9
:1068E800307B0993424B39781B8805910793414BBC
:1068F800414942488DED0E7B8DED0C5B1B8806935C
:106908003F4B8DED0A6B8DED023B8DED004B1B78F7
:1069180004933C4B1B889BB2089316F0EDF83A4B56
:106928001A78002A2CD1394A47F22F511368F31AE2
:106938008B421AD936491660364B0A6836491B68A5
:1069480094F800C00C6835491F480D6834490F6831
:10695800016809B10168711A28480297CDE903C195
:10696800CDE900452F4916F0C7F817B0BDE8F08FFC
:106978003B78002B7FF460AF234B1A78002AD2D0E3
:106988000022202128481A7018F088FC1B4816F0AD
:1069980097F8264810F0C4FEC5E700BFAFF30080A3
:1069A8000000000000409F40501F0120F82E0120E9
:1069B8006E2F0120741F01206D2F0120581F012008
:1069C800681F01206C2F01206C1F0120641F01200B
:1069D800481F01206666E63F00F07F4500003C4204
:1069E80000007A44540F012033335340ABAA3A4392
:1069F800482F0120402F0120F00B0020A8EB002099
:106A0800672F01204A2F0120652F0120701F0120C8
:106A18003C1F0120381F0120541F0120601F012046
:106A2800441F0120D00C0020AC0C0020E0F900200D
:106A3800642F0120702F0120692F0120B04F0024FE
:106A48003C70FEF781FC834688F80000002800F0BF
:106A580085844FF47A622146AA4826F063FC4FF4F5
:106A68007A622146A84826F05DFCA84B4FF6FF72D3
:106A780089F800401C60A64B8AF800401C60A54BB2
:106A88002C601C60A44B1C70A44B1A80A44B1C8067
:106A9800A44B1C803B78002B7FF4AFAEA24B1A6846
:106AA800964200F0BF8026201E6016F05DFC98F824
:106AB80000A01390BAF1000F05D097F800A0BAF122
:106AC800000F00F081814FF00009904D4FF47A7C5F
:106AD8008C4A2B68954942F8239001338C4C81FBF2
:106AE8000321DA17C2EBA1120CFB12332B602368C7
:106AF800634511931DDA0133002B1193236018DCD1
:106B08000021844B139A1960894B1A60BAF1000F5F
:106B18003FF47EAE3B78002B00F08480854C2378D0
:106B2800002B7FF47AAE87E6DFF82C92DFF82C8210
:106B38003FE6119B73499C005B1022461293724BEF
:106B480018461D1917F00AF86F4B129A9D4203EB6D
:106B5800820949D0A94547D0A01023466A4CB0FA0B
:106B680080F00C2BC0F11F004FEA400B40F3068267
:106B7800B646A4465E46DB10DCF80410013E0CF174
:106B880004025CF823000CEB830355F804BC814233
:106B980080F26C815845C0F26E81594580F275814A
:106BA800DCF80040CCF800B045F8044CDCE90010F3
:106BB8002B4601E052F8040F8142FBDC8C42A3F122
:106BC800040303DD53F8044DA142FBDB9A4280F035
:106BD8001B81114641F8044B186053F8044C506867
:106BE8000A46DCF80010E7E7474B129A53F82210E0
:106BF800119BDB0785D4444B994500F0EE810433A3
:106C0800994500F0EA81404A126853F8040B904213
:106C1800C8BF53F8042C9945F7D1521848BF013220
:106C280051106EE7444B4EF65F221B68F31A9342ED
:106C38007FF674AF3F4C4148FDF7B2FA2378002B3A
